:020000040800F2
:1000000010050020010100084918000887130008A6
:1000100065140008250C0008632800080000000093
:10002000000000000000000000000000811B00082C
:100030007D0C000800000000DD180008451D0008C8
:100040001B0100081B0100081B0100081B01000820
:100050001B0100081B0100081B010008390D0008E6
:10006000A50D00081B0100081B0100081B0100086A
:100070001B0100081B0100081B0100081B010008F0
:100080001B0100081B0100081B0100081B010008E0
:100090001B0100081B0100081B010008150E0008C9
:1000A0001B0100081B0100081B0100081B010008C0
:1000B000111E00081B0100081B0100081B0100089D
:1000C0001B0100081B0100081B0100081B010008A0
:1000D0001B010008692600081B0100081B0100081D
:1000E000C50C00081B0100081B010008DFF80CD03C
:1000F00000F026FC004800474D31000810050020A4
:100100000648804706480047FEE7FEE7FEE7FEE7B1
:10011000FEE7FEE7FEE7FEE7FEE7FEE7B11D0008AB
:10012000ED000008F0B480EA0102D40F4200B2EB07
:10013000410F02D20246084611464A0042D0C30D82
:10014000DDB2C1F3C752AD1A202D35DAC1F3160165
:1001500041F4000204B15242C5F1200602FA06F150
:100160002A411044B3EBD05F23D0C4B1012DA0EBE2
:10017000C35009DCF0BC4FF0004202EAC352DBB2CC
:1001800000F5000000F07ABA400000F1807000EB4A
:10019000C350A0F1807040EAD170490009E04908DD
:1001A00041EAC071A0EBC35000F50000400800EB2D
:1001B000C350F0BC00F059BA6142012202EB410188
:1001C000001BF6E7F0BC704781F00041AAE780F021
:1001D0000040A7E780EA010210B502F000434000AA
:1001E00022D04A001FD0010E01EB1261C0F356006D
:1001F000C2F3560240F4000042F40002A0FB0220C9
:1002000000047F39140400D0401C50EA124001D48D
:100210004000491EC2B20C0604EBD010401C40083E
:10022000802A02D003E0002010BD20F00100002948
:1002300000DA0020184310BD30B480EA010202F059
:10024000004530F0004221F0004013D090B1C30DC2
:10025000D40DC2F31601C0F31600E41A41F40001F4
:1002600040F400027D34914201D3641C00E0490057
:10027000002C02DA30BC002070474FF4000000234D
:10028000914201D3891A034340084FEA4101F7D153
:1002900051B1914202D14FF0004105E002D24FF03E
:1002A000010101E06FF0010103EBC450284430BCB0
:1002B00000F0DBB92DE9FE4F81EA030404F00044AD
:1002C00021F0004100944FF0000B23F0004350EA6E
:1002D00001045ED052EA03045BD0C3F30A54C1F3B5
:1002E0000A552C44A4F2F3340194A0FB0254C1F348
:1002F000130141F48011C3F3130343F4801301FB92
:10030000024400FB034E840A970A44EA815447EAF8
:100310008357A4FB076802958D0A05FB07854FEA02
:10032000932C04FB0C542705029D4FEA065847EA1C
:100330001637B5EB08056EEB070C870E920E47EAF1
:10034000811742EA8312A7FB0201B6EB0B0164EBB3
:1003500000042B0D43EA0C335E1844EB1C50DA46C4
:100360005146E7FB0201C5F313044FEA0B3343EA9E
:1003700014534FEA0432019C43EA0603A4F10C042F
:100380000294009CCDE900B400F0B5F903B0BDE8DB
:10039000F08F00200146F9E72DE9F04D81EA0304D2
:1003A00004F0004B21F0004514464FF0000A23F002
:1003B000004150EA050220D054EA01021DD0C5F3E5
:1003C0000A570246C5F31303C1F31300C1F30A56DB
:1003D00040F4801543F48013A7EB0608101BD646A3
:1003E00008F2FD3873EB050002D308F1010801E0C3
:1003F00092185B41B8F1000F03DA00200146BDE816
:10040000F08D00204FF48011064684460EE0171B45
:1004100073EB050705D3121B63EB050306434CEA98
:10042000010C49084FEA300092185B4150EA01077D
:10043000EDD152EA030012D082EA040083EA0501FA
:10044000084305D0101BAB4106D20122002306E071
:1004500000224FF0004302E06FF0010253101AEB4C
:1004600006004CEB085110EB0A0041EB0B01BDE814
:10047000F04D00F031B9C10F80EAE0700844CA07BE
:100480009623002100F0FAB896230022114600F0CE
:10049000F5B80EB5C10F80EAE0700844CA07002124
:1004A00040F233438DE80E000A460B4600F023F974
:1004B00003B000BD0EB540F2334102910021CDE9F9
:1004C00000110A460B4600F016F903B000BD00F01B
:1004D000004220F00040C10DC0F3160040F40000BF
:1004E0007F2901DA00207047962903DCC1F19601CB
:1004F000C84001E096398840002AF4D04042704755
:1005000070B5C1F30A5201F000450024C1F3130194
:1005100040F2FF3341F480119A4201DA002070BDAD
:1005200040F233439A42A2F2334203DC524200F0DB
:100530008CF800E090402C43F1D0404270BD00F0B8
:10054000004230F000400AD0C10D01F56071C0F3E7
:10055000160042EA0151C2084007114370470020CB
:100560000146704730B5041E71F1000404DB4FF002
:100570000044404264EB0101141E73F1000405DBEA
:100580001C464FF00043524263EB04038B4208BF0A
:10059000824230BD002801DBC0F10040002901DBB0
:1005A000C1F1004181427047002801DBC0F10040E9
:1005B000002901DBC1F100418842704730B50B468C
:1005C000014600202022012409E021FA02F59D4283
:1005D00005D303FA02F5491B04FA02F52844151E57
:1005E000A2F10102F1DC30BD2DE9F05F05460020EB
:1005F00092469B4688460646814640241BE0284694
:1006000041464746224600F020F853465A46C01A53
:10061000914110D311461846224600F0A3F92D1A35
:1006200067EB01084F4622460120002100F09AF9AD
:1006300017EB00094E41201EA4F10104DFDC4846FF
:1006400031462A464346BDE8F09F202A04DB203A83
:1006500021FA02F00021704721FA02F3D040C2F1E2
:10066000200291400843194670470029A8BF7047EF
:10067000401C490008BF20F00100704710B4B0FAD8
:1006800080FC00FA0CF050EA010404BF10BC704773
:1006900049B1CCF1200421FA04F411FA0CF118BF8D
:1006A000012121430843A3EB0C01CB1D4FEA00615C
:1006B0004FEA102042BF002010BC704700EBC3502F
:1006C00010440029A4BF10BC7047401C490008BF5B
:1006D00020F0010010BC704710B5141E73F1000427
:1006E00008DA401C41F1000192185B411A4301D124
:1006F00020F0010010BD2DE9F04D92469B4611B14E
:10070000B1FA81F202E0B0FA80F22032904600F0B5
:1007100029F904460F4640EA0A0041EA0B01534614
:100720005A46084313D0114653EA010019D0C8F1C4
:1007300040025046FFF789FF05460E46504659468F
:10074000424600F00FF9084305D0012004E020469E
:100750003946BDE8F08D0020054346EAE0762C439B
:1007600037430A986305E40AA0EB08000022FD0A5B
:1007700044EA47540A3002D500200146E9E7010562
:1007800010196941DDE9084500196941BDE8F04DDE
:10079000A2E72DE9FE4F804681EA0300C00F0C4618
:1007A000009021F0004123F00045B8EB0200A94180
:1007B00005D24046214690461C460B46024623F091
:1007C0000040104347D0270DC7F30A00C3F30A5176
:1007D0000290401A019040286BDAC3F3130040F4F2
:1007E000801B0098924620B10023D2EB030A63EBF2
:1007F0000B0B01985946C0F14002504600F0B2F888
:1008000006460D4650465946019A00F0BAF810EBDC
:1008100008006141002487EA115284EAE7731A4311
:1008200040D0009A62B3019A012A4FEA075215DCC0
:10083000001B61EB02014FF0004202EA0752CDE9D2
:100840000042001C41F5801132462B46FFF753FF52
:1008500003B0BDE8F08F40462146F9E7001B61EB8D
:100860000201001C41F5801300185B412018A2F51D
:10087000001747EB030140EAD570B6196D4111E04E
:100880006D084FEA360645EAC0754FEA0752001B6D
:1008900061EB0201001C41F5801149084FEA30006C
:1008A0000019514132462B4603B0BDE8F04FFFF727
:1008B00013BF0098012240000023D0EB020263EB3B
:1008C000E073009821464FEAE074B8EB000061EB5A
:1008D0000401E9E783F000435BE781F0004158E75A
:1008E000C1F30A52C1F3130140F2FF3341F4801106
:1008F0009A4202DA00200146704740F233439A429E
:10090000A2F2334202DC5242FFF79FBE00F02AB847
:1009100030B5041E71F1000404DB4FF00044404286
:1009200064EB0101141E73F1000405DB1C464FF05B
:100930000043524263EB0403994208BF904230BD2A
:10094000064C074D06E0E06840F0010394E807001C
:1009500098471034AC42F6D3FFF7CCFB9431000833
:10096000B4310008202A04DB203A00FA02F100200A
:1009700070479140C2F1200320FA03F319439040DD
:100980007047202A06DBCB17203A41FA02F043EAEF
:10099000E07306E041FA02F3D040C2F12002914038
:1009A00008431946704721B1826842F00102826013
:1009B00003E0826822F001028260704721B1826800
:1009C00042F48072826003E0826822F48072826066
:1009D0007047014600208A6802F004020AB1012033
:1009E00000E000207047014600208A6802F00802FB
:1009F0000AB1012000E000207047000030B5024637
:100A00000020002350680F4C20400D790C6844EA08
:100A100005242043506090680B4C2040D1E90254DB
:100A20002C434D7944EA450420439060D06A20F479
:100A300070000C7C641EE4B2234340EA0350D06291
:100A400030BD0000FFFEF0FFFDF7F1FFF0B50446FA
:100A50000D4600200021092D11DDE068A5F10A06F0
:100A600006EB4607072606FA07F18843A5F10A06B2
:100A700006EB460603FA06F10843E0600CE0206945
:100A800005EB4507072606FA07F1884305EB4506FF
:100A900003FA06F108432061072A0FDA606B561E3D
:100AA00006EB86071F2606FA07F18843561E06EB5B
:100AB000860605FA06F10843606322E00D2A0FDA84
:100AC000206BD61F06EB86071F2606FA07F1884320
:100AD000D61F06EB860605FA06F10843206310E0F0
:100AE000E06AA2F10D0606EB86071F2606FA07F15B
:100AF0008843A2F10D0606EB860605FA06F10843C7
:100B0000E062F0BD816841F008018160704721B169
:100B1000826842F4A002826003E0826822F4A002AC
:100B200082607047816841F0040181607047000075
:100B300000B591B001F0E2FC0121480200F0F0FEA6
:100B40000121084600F0CCFE022009900020089008
:100B50001090314807904FF480600D9080200B90EA
:100B600020200E902D48069080150C9000200A90B1
:100B70004FF440500F9006A9294800F061F8012178
:100B8000274800F051F8002001904FF460200390B6
:100B90000020049001208DF809008DF80800022043
:100BA0008DF8140001A91D484C38FFF727FF0723D3
:100BB0000122042119484C38FFF748FF072302227D
:100BC000062116484C38FFF741FF012113484C38E5
:100BD000FFF7E9FE012111484C38FFF7EFFE0F48FF
:100BE0004C38FFF78FFF00BF0C484C38FFF7FBFE77
:100BF0000128F9D009484C38FFF794FF00BF074897
:100C00004C38FFF7E6FE0128F9D0012103484C38A3
:100C1000FFF77DFF11B000BD220000204C240140F1
:100C20000800024000BFFEE721B1026842F0010265
:100C3000026004E002684FF6FE731A4002607047DB
:100C400010B50022026847F6F0739A430C6A8B686D
:100C500023430C6923434C6923438C692343CC69A8
:100C600023434C6A23438C6A23431A430260CB68B4
:100C700043600B6883604B68C36010BD704700B56C
:100C8000034603E04FF47A7000F005F81800A3F172
:100C90000103F7D100BD00EBC001C9004FF0E02215
:100CA0005161002191610521116100BF4FF0E021E8
:100CB000096901F480310029F8D004214FF0E022C5
:100CC0001161704770B54FF4006000F0E1F868B34F
:100CD0004FF40061164800F04DFB05464FF480517B
:100CE000134800F047FB0446012D0DD1012C05D11E
:100CF00010488068401C0F49886012E00D488068E9
:100D0000401E0C4988600CE0012C05D10948806820
:100D1000401E0849886004E006488068401C054978
:100D200088604FF4006000F0ADF800BF70BD0000B7
:100D3000001001400001002070B5022000F0A8F86A
:100D400058B34FF48051154800F014FB05460221BA
:100D5000124800F00FFB0446012D0DD1012C05D1E6
:100D60000F484068401C0E49486012E00C4840683B
:100D7000401E0B4948600CE0012C05D10848406832
:100D8000401E0749486004E005484068401C04498B
:100D90004860022000F076F800BF70BD000C0140F2
:100DA0000001002070B5042000F072F850B3042157
:100DB000154800F0DFFA05464021144800F0DAFA41
:100DC0000446012D0DD1012C05D11148C068401CED
:100DD0000F49C86012E00E48C068401E0C49C86048
:100DE0000CE0012C05D10A48C068401E0849C860C3
:100DF00004E00748C068401C0549C860042000F0B2
:100E000041F800BF70BD000000140140000C01401B
:100E10000001002070B5202000F03AF850B3012105
:100E2000154800F0A7FA05462021144800F0A2FA60
:100E30000446012D0DD1012C05D111480068401C3C
:100E40000F49086012E00E480068401E0C49086017
:100E50000CE0012C05D10A480068401E08490860D2
:100E600004E007480068401C05490860202000F0A5
:100E700009F800BF70BD0000000C014000100140E7
:100E8000000100200149086070470000140401407F
:100E9000014600200022074B1B6803EA0102054BB4
:100EA00014331B680B4013B10AB1012000E000208D
:100EB00070470000000401402DE9F84F044673A07C
:100EC00001F0D2FC40F61810009040F6092A4FF0CD
:100ED000000918E0604201B2012000F03BFC6042D2
:100EE00001B2022000F036FC21B2032000F032FCF7
:100EF00021B2042000F02EFC0520FFF7C0FE09F10E
:100F0000010000F0FF09B9F1640FE3DB4FF00009C5
:100F10004EE06042FFF7BDFA07464FF033325F4BB9
:100F2000FFF7C8F90546FFF7EBFA0FFA80FB5946C1
:100F3000012000F00FFC6042FFF7ABFA07464FF0CC
:100F40003332564BFFF7B6F90546FFF7D9FA0FFAD9
:100F500080FB5946022000F0FDFB2046FFF7AAFA6D
:100F600007464FF033324D4BFFF7A4F90546FFF724
:100F7000C7FA0FFA80FB5946032000F0EBFB20462E
:100F8000FFF798FA07464FF03332444BFFF792F9D8
:100F90000546FFF7B5FA0FFA80FB5946042000F02A
:100FA000D9FB0520FFF76BFE09F1010000F0FF09F6
:100FB0003B484088504502DBB9F1500FA9DB0021C6
:100FC000012000F0C7FB0021022000F0C3FB00213C
:100FD000032000F0BFFB0021042000F0BBFB322007
:100FE000FFF74DFE2046FFF765FA07464FF0333214
:100FF0002A4BFFF75FF90546FFF782FA0FFA80FBED
:101000005946012000F0A6FB2046FFF753FA074699
:101010004FF03332214BFFF74DF90546FFF770FAD9
:101020000FFA80FB5946022000F094FB6042FFF764
:1010300030FA07464FF03332184BFFF73BF90546BD
:10104000FFF75EFA0FFA80FB5946032000F082FB9F
:101050006042FFF71EFA07464FF033320F4BFFF79F
:1010600029F90546FFF74CFA0FFA80FB5946042090
:1010700000F070FBC820FFF702FE0020094908704D
:1010800009A001F0F1FBBDE8F88F0000E689A7E8B0
:10109000A18CE5B7A6E8BDAC0D0A00003333E33FF1
:1010A0002200002015000020E5B7A6E8BDACE5AEA3
:1010B0008CE688900D0A00002DE9F041074638A023
:1010C00001F0D2FB40F6181540F60926002416E080
:1010D0004FF41671012000F03DFB4FF41671022011
:1010E00000F038FB3249032000F034FB3049042083
:1010F00000F030FB0520FFF7C2FD601CC4B22D4894
:101100000088A842E4DB642CE2DB14E04FF41671A3
:10111000012000F01FFB4FF41671022000F01AFBB3
:101120002349032000F016FB2149042000F012FBA4
:101130000520FFF7A4FD1F484088B042E6DA0021F1
:10114000012000F007FB0021022000F003FB00213A
:10115000032000F0FFFA0021042000F0FBFA322007
:10116000FFF78DFD1249012000F0F4FA104902202A
:1011700000F0F0FA4FF41671032000F0EBFA4FF490
:101180001671042000F0E6FAC820FFF778FD002071
:101190000949087009A001F067FBBDE8F081000073
:1011A000E689A7E8A18CE58FB3E8BDAC0D0A000085
:1011B000A8FDFFFF2200002015000020E58FB3E806
:1011C000BDACE5AE8CE688900D0A00002DE9F0413B
:1011D000024600250026002000230024002791F865
:1011E00003C00CF00F0591F803C00CF0100CBCF11B
:1011F000000F03D091F802C04CEA050591F800C039
:10120000BCF1000F31D0146800202BE04FF0010C2E
:101210000CFA00F3B1F800C00CEA03069E4220D19C
:1012200083004FF00F0C0CFA03F7BC4305FA03FCE4
:101230004CEA040491F803C0BCF1280F06D14FF02A
:10124000010C0CFA00FCC2F814C00AE091F803C0CB
:10125000BCF1480F05D14FF0010C0CFA00FCC2F8AC
:1012600010C0401C0828D1D31460B1F800C0BCF1F4
:10127000FF0F34DD546800202EE000F1080C4FF021
:10128000010808FA0CF3B1F800C00CEA03069E420C
:1012900021D183004FF00F0C0CFA03F7BC4305FA81
:1012A00003FC4CEA040491F803C0BCF1280F05D1FB
:1012B00000F1080C08FA0CF8C2F8148091F803C089
:1012C000BCF1480F07D100F1080C4FF0010808FAF3
:1012D0000CF8C2F81080401C0828CED35460BDE83A
:1012E000F0810000F0B50A4600230024002100250B
:1012F00000F00046B6F1004F02D11D4EF16901E049
:101300001B4E7168C0F3034583B200F44016B6F576
:10131000401F08D121F07061154E766826F0706686
:10132000134F7E6012E000F48016B6F5801F06D1E0
:10133000032606FA05F4A14341F0706106E0460D6C
:10134000360103FA06F6B14341F0706122B1460D51
:10135000360103FA06F6314300F00046B6F1004FBD
:1013600002D1034EF16101E0014E7160F0BD000059
:10137000000001400246002093680B400BB10120A1
:1013800000E00020704700BFFEE7000070B5044693
:101390000D46164626480078002841D0254800789A
:1013A000012804D0022806D0032837D107E02046C0
:1013B000FFF782FD33E02046FFF77EFE2FE000219D
:1013C000012000F0C7F90021022000F0C3F900213C
:1013D000032000F0BFF90021042000F0BBF9C82071
:1013E000FFF74DFC1449012000F0B4F94FF4FA71F5
:1013F000022000F0AFF94FF4FA71032000F0AAF9CF
:101400000D49042000F0A6F9C820FFF738FC0BA016
:1014100001F02AFA2046FFF74FFE00E000BF05E08A
:1014200033462A462146012000F09AFF70BD000095
:1014300015000020140000200CFEFFFFE6A380E64C
:10144000B58BE588B0E58D81E5AD97E8B7AFE58F61
:10145000A3EFBC8CE689A7E8A18CE58FB3E8BDAC0F
:101460005C720A0000BFFEE700B589B001211120BF
:1014700000F056FA0121022000F042FA4FF4C07049
:10148000ADF8200018208DF8230003208DF82200ED
:1014900008A91F48FFF79AFE01211E48FFF722FF07
:1014A00040F2E730ADF818004720ADF814000020F6
:1014B000ADF81A00ADF8160005A9174800F0C0FEF7
:1014C0006020ADF804000120ADF806000020ADF862
:1014D0000C00ADF80A0001A90F4800F099FD0821A1
:1014E0000D4800F0E7FD0020ADF80A0001A90A4808
:1014F00000F0EEFD0821084800F03AFE0121064800
:1015000000F0CAFC0121044800F0F1FC09B000BD64
:1015100000100140000C1A000004004000B58DB01E
:10152000012142F61D0000F0FBF90121042000F02A
:10153000E7F94FF48440ADF8300018208DF83300FF
:1015400003208DF832000CA97C48FFF73FFE4FF4D2
:101550008070ADF830000CA97948FFF737FE4FF4E2
:101560000070ADF830000CA97648FFF72FFE402040
:10157000ADF830000CA97348FFF728FE4FF4004087
:10158000ADF830000CA96D48FFF720FE40F2E730BF
:10159000ADF828004720ADF824000020ADF82A005F
:1015A000ADF826008DF82C0009A9674800F048FE28
:1015B00005A800F032FE6020ADF814000020ADF860
:1015C00016000420ADF818000020ADF81C00ADF89E
:1015D0001E00ADF81A0005A95B4800F019FD0821AE
:1015E000594800F067FD0120ADF816000020ADF865
:1015F0001800ADF81C00ADF81A0005A9524800F01B
:10160000B1FC0821504800F0F9FC0020ADF81600AC
:101610000420ADF818000020ADF81E00ADF81A0047
:1016200005A9494800F054FD0821474800F0A0FDF5
:1016300009A9464800F004FE0120ADF8160000207C
:10164000ADF81800ADF81C00ADF81A0005A93F4828
:1016500000F088FC08213D4800F0D0FC0020ADF8E7
:101660001A0005A9394800F08DFD0821374800F01F
:10167000C7FD40F2E730ADF828004720ADF8240060
:101680000020ADF82A00ADF8260009A9304800F086
:10169000D7FD6020ADF814000120ADF81600002041
:1016A000ADF81800ADF81C00ADF81A0005A92848DF
:1016B00000F068FD0821264800F0A2FD01A800F016
:1016C00007FC4FF40060ADF804004010ADF80600D0
:1016D0000020ADF80A00ADF80800ADF80C004FF49A
:1016E0008040ADF8100001A9174800F0E1FB01A906
:1016F000164800F0DDFB0121134800F004FC012135
:10170000124800F000FC01210F4800F0C5FB012148
:101710000D4800F0ECFB01210C4800F0BDFB01215D
:101720000A4800F0E4FB0121094800F0B5FB012163
:10173000074800F0DCFB0DB000BD0000000C0140CC
:101740000008014000100140002C0140003401401D
:101750000008004070B505460C46B4F57A7F02DDFE
:101760004FF47A7005E014F57A7F01DA314800E031
:1017700020460446012D06D0022D19D0032D2CD071
:10178000042D54D13EE0002C08DB00212A4800F053
:1017900052FDA1B2284800F04CFD08E0604281B241
:1017A000254800F048FD0021234800F042FD3FE0BD
:1017B000002C08DB0021214800F03BFDA1B22048AD
:1017C00000F03BFD08E0604281B21C4800F031FDB2
:1017D00000211B4800F031FD2AE0002C08DBA1B2FB
:1017E000164800F024FD0021164800F026FD08E010
:1017F0000021124800F01BFD604281B2114800F048
:101800001CFD15E0002C08DBA1B20E4800F00FFD16
:1018100000210A4800F00FFD08E00021094800F00F
:1018200006FD604281B2054800F005FD00E000BF02
:1018300000BF70BD18FCFFFF00040040002C0140F9
:1018400000080040003401407047000070B50021DE
:1018500000230F22C47804B3154C246804F4E06418
:10186000C4F5E064210AC1F10403CA40447804FAD3
:1018700003F184781440214309010E4C0678A155E8
:10188000047804F01F050124AC4005786D11AD000B
:1018900005F1E025C5F8004109E0047804F01F05D2
:1018A0000124AC40044D0678761145F8264070BD01
:1018B0000CED00E000E400E080E100E002490143BB
:1018C000024A1160704700000000FA050CED00E0CC
:1018D00010B5FFF7C9FDFFF721FE10BD70470000EE
:1018E00029B1064A52690243044B5A6104E0034A93
:1018F00052698243014B5A61704700000010024058
:1019000029B1064AD2690243044BDA6104E0034A72
:10191000D2698243014BDA61704700000010024037
:1019200029B1064A92690243044B9A6104E0034AD2
:1019300092698243014B9A61704700000010024097
:101940000F48006840F001000D49086008464068F3
:101950000C4908400A494860084600680A4908409E
:10196000074908600846006820F48020086008469F
:10197000406820F4FE0048604FF41F008860704704
:10198000001002400000FFF8FFFFF6FE30B5002116
:101990000022002400232D4D6D6805F00C0121B1BB
:1019A000042905D0082923D105E0294D056022E04E
:1019B000274D05601FE0254D6D6805F47012234D1D
:1019C0006D6805F48034022505EB92421CB9214D67
:1019D000554305600BE01D4D6D6805F400351DB1E4
:1019E0001C4D5543056002E0194D5543056002E06A
:1019F000174D056000BF00BF144D6D6805F0F00184
:101A00000909154D6B5C0568DD4045600F4D6D683B
:101A100005F4E061090A104D6B5C4568DD408560A6
:101A20000A4D6D6805F46051C90A0B4D6B5C456841
:101A3000DD40C560054D6D6805F44041890B074DDB
:101A40006B5CC568B5FBF3F5056130BD0010024065
:101A500000127A0000093D00000000201000002064
:101A600010B501460022002300204A11012A02D1AC
:101A7000094C236806E0022A02D1074C236A01E0E0
:101A8000054C636A01F01F02012494401C400CB114
:101A9000012000E0002010BD001002400248406814
:101AA00000F00C00704700000010024001460020CA
:101AB000034A506820F0F00008435060704700006F
:101AC000001002401149096821F480310F4A116069
:101AD0001146096821F480211160B0F5803F03D0E0
:101AE000B0F5802F0ED106E00849096841F4803135
:101AF000064A116007E00549096841F4A021034A3C
:101B0000116000E000BF00BF7047000000100240FD
:101B100001460020034A506820F4E060084350600A
:101B2000704700000010024001460020034A506840
:101B300020F4605040EAC10050607047001002403D
:101B4000014908667047000000004242024600203A
:101B5000044B586820F47C1042EA01031843014BFF
:101B6000586070470010024001460020034A506848
:101B700020F003000843506070470000001002404E
:101B80007047000000B587B001218803FFF7C8FE49
:101B900001210420FFF7C4FE18208DF81B004FF42C
:101BA0000070ADF8180003208DF81A0006A921482E
:101BB000FFF70CFB48208DF81B004FF48060ADF858
:101BC000180003208DF81A0006A91A48FFF7FEFA3C
:101BD0004FF4E13002900020ADF814000C20ADF875
:101BE00012000020ADF81000ADF80E00ADF80C00AA
:101BF00002A9114800F0C0FD012240F225510E4813
:101C000000F094FD4FF4A060FFF758FE25208DF8FA
:101C1000040001208DF807008DF805008DF80600FE
:101C200001A8FFF713FE0121034800F03CFD07B0B7
:101C300000BD0000000801400038014010B5044616
:101C40002146054800F009FE00BF8021024800F04F
:101C500036FD0028F9D010BD0038014010B500F065
:101C600001F810BD0CB500200190009033480068C9
:101C700040F480303149086000BF3048006800F40B
:101C8000003000900198401C0190009818B901980C
:101C9000B0F5A06FF1D12948006800F4003010B110
:101CA0000120009001E0002000900098012843D11D
:101CB0002348006840F01000214908600846006889
:101CC00020F0030008600846006840F00200086049
:101CD0001A48406819494860084640684860084604
:101CE000406840F4806048600846406820F47C10FA
:101CF00048600846406840F4E810486008460068BC
:101D000040F08070086000BF0C48006800F0007070
:101D10000028F9D00948406820F0030007494860CE
:101D20000846406840F00200486000BF0348406831
:101D300000F00C000828F9D10CBD00000010024092
:101D400000200240704710B5FFF7FAFD4FF48030D5
:101D5000FFF7B8FE00BF3120FFF782FE0028FAD05F
:101D60004FF4E0114FF48030FFF7F0FE0120FFF751
:101D7000E7FE00BF3920FFF773FE0028FAD00220EB
:101D8000FFF7F2FE00BFFFF789FE0828FBD1002015
:101D9000FFF78CFE4FF48060FFF7BAFE0020FFF7DC
:101DA000C3FE012146F63D00FFF7BAFD10BD00005D
:101DB00010B51348006840F001001149086008465A
:101DC0004068104908400E494860084600680E49BE
:101DD00008400B4908600846006820F4802008602D
:101DE0000846406820F4FE0048604FF41F008860F9
:101DF000FFF734FF4FF000600449086010BD000099
:101E0000001002400000FFF8FFFFF6FE08ED00E0C2
:101E10002DE9F0410121880700F084F8012831D133
:101E20001948007850BB40F6181040F60921174EAB
:101E300035887288854201DA012600E000263346A3
:101E40008A4201DA012600E00026344693B18CB1C3
:101E50000F4E3668761C0E4F3E603E463668032EA7
:101E60000BDB00263E600126074F3E700326094F1C
:101E70003E7002E00026064F3E6000BF0121880749
:101E800000F032F8BDE8F0811500002022000020AB
:101E9000180000201400002021B1028842F08002C6
:101EA000028004E002884FF67F731A400280704778
:101EB0000A884B881A438B881A43CB881A430B89AC
:101EC0001A434B891A438B891A43A0F84420704760
:101ED0000021018041808180C18001814181818117
:101EE0007047CA4302827047CA430282704721B1D9
:101EF000028842F00102028004E002884FF6FE737D
:101F00001A400280704731B1B0F8442042F40042D8
:101F1000A0F8442005E0B0F84420C2F30E02A0F877
:101F20004420704730B50246002000230024158A63
:101F300005EA0103958905EA010413B10CB10120FA
:101F400000E0002030BD1AB183890B43838102E099
:101F500083898B438381704701894FF6F872114062
:101F60000181704770B5002400220023058C4FF6D4
:101F7000FE7635400584028C8388048B4FF68F757E
:101F80002C40B51E2C400D882C43751E2A400D890F
:101F90002A434D882A43144DA8420BD0134DA84222
:101FA00008D0134DA84205D0124DA84202D0124DC0
:101FB000A84213D14FF6F7752A404D892A434FF6B0
:101FC000FB752A408D882A434FF6FF652B404FF65C
:101FD000FF552B408D892B43CD892B438380048370
:101FE000CD888586028470BD002C014000340140FC
:101FF0000040014000440140004801400A460021E1
:10200000018B4FF6F77319401143018370470000AD
:1020100070B5002400220023058C4FF6EF76354082
:102020000584028C8388048B48F6FF752C404FF69C
:10203000FF452C400D884FF6FF7606EA05252C4318
:102040004FF6DF752A400D8906EA05152A434D88AB
:1020500006EA05152A43154DA84202D0144DA842A0
:102060001DD14FF67F752A404D894FF6FF7606EA5F
:1020700005152A434FF6BF752A408D8806EA0515D7
:102080002A434FF6FF352B404FF2FF752B408D89C9
:1020900006EA85052B43CD8906EA85052B43838017
:1020A0000483CD880587028470BD0000002C0140A8
:1020B000003401400A460021018B4FF2FF731940A2
:1020C0004FF6FF7303EA02231943018370470000B0
:1020D00070B5002400220023058C4FF6FF663540C2
:1020E0000584028C8388848B4FF68F752C404FF6C5
:1020F000FC752C400D882C434FF6FF552A400D8966
:102100004FF6FF7606EA05252A434D8806EA05259F
:102110002A43154DA84202D0144DA8421DD14FF2BA
:10212000FF752A404D894FF6FF7606EA05252A43BA
:102130004FF6FF352A408D8806EA05252A434EF6DC
:10214000FF752B404DF6FF752B408D8906EA05156E
:102150002B43CD8906EA05152B4383808483CD88E4
:102160008587028470BD0000002C014000340140CE
:102170000A460021818B4FF6F77319401143818382
:102180007047000070B5002200230024058C4EF635
:10219000FF7635400584038C8488828B48F6FF7572
:1021A0002A404FF6FF452A400D884FF6FF7606EA93
:1021B00005252A434DF6FF752B400D8906EA0535A6
:1021C0002B434D8806EA05352B430B4DA84202D020
:1021D0000A4DA84208D14BF6FF752C408D894FF669
:1021E000FF7606EA85152C4384808283CD88A0F88B
:1021F0004050038470BD0000002C014000340140B9
:102200000A460021818B4FF2FF7319404FF6FF738E
:1022100003EA022319438183704700210180418032
:102220008180C180018141818181C1817047818626
:1022300070470187704781877047A0F8401070474A
:10224000002202881D4B98420ED01D4B98420BD0A5
:10225000B0F1804F08D01B4B984205D01A4B9842E2
:1022600002D01A4B984204D14FF68F731A404B8814
:102270001A43174B984207D0164B984204D04FF69A
:10228000FF431A40CB881A4302808B8883850B88D2
:1022900003850A4B98420BD0094B984208D00E4B4D
:1022A000984205D00D4B984202D00D4B984201D177
:1022B0000B7A03860123838270470000002C0140C3
:1022C000003401400004004000080040000C0040C1
:1022D0000010004000140040004001400044014054
:1022E000004801401FB501210846FFF709FB4FF0E8
:1022F0008040FFF731FE0020ADF80A00ADF806007F
:1023000040F2E730ADF808004720ADF804000020A7
:102310008DF80C0001A94FF08040FFF791FF0121DB
:102320008807FFF7DEFD012211469007FFF70BFE3D
:102330004FF4A060FFF7C2FA1C208DF800000120C6
:102340008DF803008DF8010000208DF8020068462A
:10235000FFF77CFA01218807FFF7C9FD1FBD0000C8
:102360002DE9FF5F05460C46904699465B49098872
:10237000A1F24930FEF77FF859490290FDF75CFF62
:10238000824656494988A1F2E640FEF774F855495D
:102390000290FDF751FF834600215046FEF7FAF800
:1023A00001D24FF0000A4FF07E515046FEF7FCF884
:1023B00001D24FF07E5A00215846FEF7EBF801D2C9
:1023C0004FF0000B4FF07E515846FEF7EDF801D26A
:1023D0004FF07E5B012D0AD151465846FDF7F4FEC1
:1023E00041490290FDF7F6FE404908600BE0022DDE
:1023F00009D159465046FDF7E7FE3B490290FDF7EB
:10240000E9FE3A4908600520039038480068FEF765
:1024100096F821F000410022354BCDE90001FEF78E
:10242000A1F802D2002031490860324801682F48E3
:102430000068FDF7C9FE49460090FDF7CBFE02900B
:102440002A4801684046FDF7C5FE01900299FDF754
:1024500069FE294908602046FEF716F802902648D2
:1024600001680298FEF796F804D22046FEF70CF8B1
:10247000214908606042FDF7FEFF02901E48016896
:102480000298FEF791F804D26042FDF7F4FF1A4972
:10249000086019480068FEF71AF8201A06B21648B4
:1024A0000068FEF714F8204407B231460120FFF718
:1024B00051F9784201B20220FFF74CF9704201B2A3
:1024C0000320FFF747F939460420FFF743F907488F
:1024D000006808490860BDE8FF9F00002200002056
:1024E00000E03945006024450000FF432C00002037
:1024F00000001440280000203000002008B5012111
:102500000420FFF70DFA5020ADF8000000208DF8F0
:10251000030003208DF8020069460248FEF756FECC
:1025200008BD00000008014010B5FEF701FB10BD1A
:102530004849097805297DD2DFE801F0030E1835F6
:102540005000AA2807D10121424A11700021424AB5
:102550001180424A11707BE0552803D102213D4A87
:10256000117002E000213B4A117071E0042801D093
:10257000072810D10321374A117037490A88098882
:10258000491C354B1980364988543449097801442F
:10259000324A117006E000212E4A11702E4A118035
:1025A0002E4A117054E0052810DB0421294A1170CD
:1025B00029490A880988491C274B198028498854C9
:1025C000264909780144254A117006E00021214A74
:1025D0001170214A1180214A117039E0204949784F
:1025E000491C1D4A128891420DDD1B490A88098841
:1025F000491C194B19801A49885418490978014413
:10260000164A11701BE016494978491C124A128873
:10261000914214D111490978C943104A11701146E9
:102620000978884202D101210E4A11700021094A1D
:10263000117000E004E0084A1180084A117007E0B8
:102640000021044A1170044A1180044A117000BF2D
:1026500000BF7047200000201E0000202100002045
:10266000380000201C00002010B540F22551084819
:1026700000F032F858B1064800F0EAF8C4B220463B
:10268000FFF756FF40F22551014800F003F810BD56
:102690000038014001F40072B2F5007F00D100BFA4
:1026A000CA430280704721B1828942F4005282817C
:1026B00004E082894DF6FF731A408281704702461A
:1026C0000020B1F5007F00D100BF13880B400BB193
:1026D000012000E00020704770B50246002400236E
:1026E0000025002040F66A16B14200D100BFC1F3B8
:1026F000421501F01F03012606FA03F3012D02D152
:102700009689334006E0022D02D1168A334001E05B
:10271000968A33400C12012606FA04F416883440D7
:1027200013B10CB1012000E0002070BDF0B50346EC
:10273000002400260025002040F66A17B94200D187
:1027400000BF1846C1F3421401F01F06012707FA23
:1027500006F5012C01D10C3004E0022C01D110301F
:1027600000E014301AB107682F43076002E00768E1
:10277000AF430760F0BD00002DE9F04786B0054685
:102780000E460024A24600BFA1460027B08900B132
:1027900000BF2F462C8A4CF6FF700440F08804439B
:1027A0002C82AC894EF6F3100440B088318908437E
:1027B000718908430443AC81AC8A4FF6FF40044062
:1027C000B0890443AC8201A8FFF7E0F81F488742B4
:1027D00002D1DDF810A001E0DDF80CA0A88900F41A
:1027E000004040B10AEBCA0000EB0A103168490012
:1027F000B0FBF1F807E00AEBCA0000EB0A10316801
:102800008900B0FBF1F86420B8FBF0F00401200966
:10281000642101FB1089A88900F4004040B13220F6
:1028200000EBC900B0FBF1F000F00700044308E042
:10283000322000EB09106421B0FBF1F000F00F0032
:1028400004432C8106B0BDE8F08700000038014049
:1028500001468888C0F308007047C1F308028280EF
:10286000704700BFFEE700000FB4054B10B503A989
:10287000044A029800F0CAF810BC5DF814FB00008E
:102880003B3100083400002002E008C8121F08C1D4
:10289000002AFAD170477047002001E001C1121FE1
:1028A000002AFBD1704700002DE9FF5FDDE902201F
:1028B000010DDDF838B0024318D044F61050A1F2F3
:1028C000FF3141430D140F98012820D0A5EB0B00D8
:1028D000401C5FEA000A4FF00004474EDFF81C91ED
:1028E000A046504616D5CAF1000728E00F980124EB
:1028F00043A2012808D0002100980F9BC0E90021C5
:10290000C0E90243BDE8FF9F6FEA0B01F4E7CBF19A
:102910000000DEE7074612E0F80707D022463346FC
:1029200040464946FDF7C6FC804689462246334666
:1029300010461946FDF7BEFC04460E467F10002FD8
:10294000EAD1DDE90201BAF1000F42464B4602DA54
:10295000FDF7B0FC01E0FDF71FFD04460E46002226
:10296000284BFDF7D5FF03D84FF0FF30014607E0B5
:102970000022254B20463146FDF70BFFFDF7B0FF47
:10298000102409E0002C0ADB0A220023FDF72CFEAC
:10299000019B30321A55641E50EA0102F2D1641CC8
:1029A000019AC4F1110314440F9A012A03D00122A1
:1029B00008430DD10AE0084304D000204FF0110B6A
:1029C0000F9080E7A3EB0B056D1E0DE05B4504DD6A
:1029D0004FF0000205F1010504E003DA4FF00002B8
:1029E000A5F10105002AECD000980F99C0E9023149
:1029F000C0E9004586E70000000024400000F03FE9
:102A0000300000000000F0430000E03F2DE9FF4FE0
:102A100095B09B468946064600250FE2252877D1CA
:102A200000242746F84A0121059400E0044316F8E3
:102A3000013F203B01FA03F01042F7D130782A28F9
:102A400011D06FF02F033078A0F13002092A16D888
:102A5000059A44F0020402EB820203EB42021044A6
:102A6000761C0590EFE759F8042B0592002A03DA4B
:102A7000504244F40054059044F00204761C30782F
:102A80002E2816D116F8010F44F004042A280DD080
:102A90006FF02F023078A0F13003092B09D807EB33
:102AA000870302EB4303C718761CF3E759F8047B4E
:102AB000761C30786C280FD006DC4C2817D068289C
:102AC0000DD06A2814D104E0742810D07A280FD1D0
:102AD0000DE044F400140AE044F4801401E044F4EE
:102AE00040147278824202D104F58014761C761C60
:102AF000307866280BD013DC582877D009DC002802
:102B000075D04528F6D04628F4D047281AD19DE143
:102B100018E0632835D0642879D0652812D195E172
:102B2000702873D008DC6728F1D069286FD06E2830
:102B30000DD06F2806D1B5E073282CD0752875D03C
:102B4000782874D05A46179990476D1C75E1C4F3E4
:102B50000250022809D003280DD0D9F8001004280B
:102B60000DD00D6009F1040967E1D9F80010EA17EA
:102B7000C1E90052F6E7D9F800100D80F2E70D70B8
:102B8000F0E719F8041B8DF8001000208DF8010003
:102B9000EA46012003E059F804AB4FF0FF3061072B
:102BA0004FF0000102D40DE008F101018846B9425E
:102BB0000FDA8045F8DB1AF808100029F4D108E094
:102BC00008F1010188468142FADB1AF80810002951
:102BD000F6D105985B46A0EB080721463846179AC0
:102BE00000F094FA284400EB080507E04DE029E1E5
:102BF0000DE01AF8010B5A4617999047B8F10108F1
:102C0000F7D25B4621463846179A13E142E00A2282
:102C10000092C4F302524FF0000A022A08D059F879
:102C200004CB032A4FEAEC710AD00DE029E02AE038
:102C300009F1070121F00702F2E802C1914609E01B
:102C40000FFA8CFC4FEAEC71042A03D14FFA8CFC8A
:102C50004FEAEC71002907DA0A460021DCF1000C8A
:102C600061EB02012D2202E0220504D52B228DF812
:102C70000420012203E0E20701D02022F7E790467A
:102C800059E00A2102E010220DE010214FF0000A65
:102C900000910BE010224FF0000A44F004040827D2
:102CA000009203E008224FF0000A0092C4F302529F
:102CB000022A05D059F804CB0021032A08D009E0E4
:102CC00009F1070121F00702F2E802C1914605E08F
:102CD0001FFA8CFC042A01D10CF0FF0C4FF0000805
:102CE000220728D5702806D0009B83F0100353EAF2
:102CF0000A0305D00EE040228DF80420012208E0EE
:102D00005CEA010206D030228DF804208DF805001F
:102D100002229046009B83F0080353EA0A030AD17B
:102D20005CEA010201D1620705D530228DF804204A
:102D30004FF001087F1E582804D034A003900EA83D
:102D400002900DE036A0F9E753466046009AFDF781
:102D50004BFC84460398825C0298401E02900270ED
:102D60005CEA0100F0D1029806A9081A00F1200AD5
:102D7000600702D524F4803400E00127574502DDC6
:102D8000A7EB0A0000E0002000EB0A010090059884
:102D90004144401A0590E00306D45B462146179A49
:102DA000059800F0B3F90544002706E001A85A464B
:102DB000C05D179990476D1C7F1C4745F6DBE0030B
:102DC0000CD55B462146179A059800F09FF90544FB
:102DD00004E030205A46179990476D1C0099481E10
:102DE00000900029F5DC08E0029802995A46007824
:102DF000491C0291179990476D1CBAF10001AAF184
:102E0000010AF1DC65E100000928010030313233AC
:102E10003435363738396162636465660000000016
:102E20003031323334353637383941424344454600
:102E30000000000000F058F90544761C30780028A6
:102E40007FF4ECAD19B02846BDE8F08F620700D4DE
:102E5000062709F1070222F0070CFCE80223E146ED
:102E600003F000485FEA080C02D00FF2702C0DE06E
:102E70005FEA045C02D50FF2682C07E05FEAC47CCD
:102E800002D00FF2602C01E0AFF2700C4FF0FF386F
:102E900023F00043CDF850C065280CD006DC45284F
:102EA00009D046281DD047283DD13DE0662818D0DE
:102EB00067287ED138E00021112F01DB112000E0CE
:102EC000781CCDE9000106A90EA8FFF7EDFCDDE9AD
:102ED0000F010E9A03910021009207F1010A04915B
:102EE0004DE04FF000400097CDE9011006A90EA873
:102EF000FFF7DAFCDDE90F0203920E9B1199002225
:102F0000DDF80CA00093049211B9791C00EB010AC2
:102F1000B7EB0A0004D4C0F1FF3007F1010A0490B6
:102F2000AAEB0700019044E0012F00DA01270021FD
:102F3000112F01DD112000E03846CDE9000106A97E
:102F40000EA8FFF7B1FCDDE90F010E9A03910021F5
:102F500004910092BA4621070CD40399514500DA36
:102F60008A46BAF1010F05DD009AAAF10101515C10
:102F7000302908D0B84202DA10F1040F06DA012134
:102F8000CDE9011015E0AAF10101E9E7002805DC0F
:102F9000049901440491AAEB000102E0411C51454F
:102FA00000DD8A460499401A401C01904FF0004011
:102FB0000290200704D40198504501DBCDF804802D
:102FC00000208DF84F0002980DF14F07B0F1004F2F
:102FD00025D02B200E9002984FF0020800280CDA22
:102FE000404202902D200E9007E00A210298FDF742
:102FF000E5FA3031029007F8011DB8F10001A8F19F
:103000000108F2DC02980028EFD1791E0E980870B2
:10301000307800F0200040F0450007F8020D12A8BB
:10302000C01B00F107081498007800B1012000EBE4
:103030000A01019801EBE07105984144401A401ED5
:103040000590E00306D45B462146179A059800F0E8
:103050005DF805441498007818B15A4617999047BE
:103060006D1CE00324D55B462146179A059800F0B5
:103070004DF805441CE00498002807DBDDE9030156
:10308000884203DD0098405C179901E017993020D1
:103090005A469047049805F10105401C0490019898
:1030A000401E019004D12E205A46179990476D1C5E
:1030B000BAF10001AAF1010ADDDC05E017F8010B05
:1030C0005A46179990476D1CB8F10001A8F1010804
:1030D000F4DC5B462146179A0598ABE62D0000000C
:1030E0002B000000200000002DE9F04104460025DF
:1030F0001E461746880404D405E039462020B04710
:103100006D1C641EF9D52846BDE8F0812DE9F0411B
:10311000044600251E469046C80301D5302700E02E
:103120002027880404D505E041463846B0476D1C89
:10313000641EF9D52846BDE8F08170B504460D46F9
:10314000E0B2FEF77BFD204670BD0000FEF7FBFD00
:10315000FEF72EFE4FF4A060FEF7B0FBFEF712FD67
:10316000FEF7B6FBFFF7E0F9FFF7BCF84FF47A7013
:10317000FDF785FD08E0054A05494FF41670FEF796
:1031800005F91420FDF77BFDF5E700000000204164
:103190000000C040B43100080000002038000000EA
:1031A00088280008EC31000838000020D80400000E
:1031B0009828000800000000010203040102030433
:1031C00006070809020406080000000000000000CD
:1031D00000000000000000000000000000000000EF
:0C31E000000000000000000000000000E3
:04000005080000ED02
:00000001FF
