:020000040800F2
:1000000000070020010100088D1A000835160008BD
:10001000A9160008650C00084B2F0008000000001E
:10002000000000000000000000000000051F0008A4
:100030003D0F000800000000211B000845210008BA
:100040001B0100081B0100081B0100081B01000820
:100050001B0100081B0100081B0100085D110008BE
:10006000C91100081B0100081B0100081B01000842
:100070001B0100081B0100081B0100081B010008F0
:100080001B0100081B0100081B0100081B010008E0
:100090001B0100081B0100081B01000839120008A1
:1000A0001B0100081B0100081B0100081B010008C0
:1000B0005D2200081B0100081B0100081B0100084D
:1000C0001B0100081B0100081B0100081B010008A0
:1000D0001B010008112D00083D2D00081B01000820
:1000E000E91000081B0100081B010008DFF80CD014
:1000F00000F060FC004800476D3A0008000700204F
:100100000648804706480047FEE7FEE7FEE7FEE7B1
:10011000FEE7FEE7FEE7FEE7FEE7FEE7D521000883
:10012000ED000008F0B480EA0102D40F4200B2EB07
:10013000410F02D20246084611464A0042D0C30D82
:10014000DDB2C1F3C752AD1A202D35DAC1F3160165
:1001500041F4000204B15242C5F1200602FA06F150
:100160002A411044B3EBD05F23D0C4B1012DA0EBE2
:10017000C35009DCF0BC4FF0004202EAC352DBB2CC
:1001800000F5000000F0E9BA400000F1807000EBDB
:10019000C350A0F1807040EAD170490009E04908DD
:1001A00041EAC071A0EBC35000F50000400800EB2D
:1001B000C350F0BC00F0C8BA6142012202EB410119
:1001C000001BF6E7F0BC704781F00041AAE780F021
:1001D0000040A7E780EA010210B502F000434000AA
:1001E00022D04A001FD0010E01EB1261C0F356006D
:1001F000C2F3560240F4000042F40002A0FB0220C9
:1002000000047F39140400D0401C50EA124001D48D
:100210004000491EC2B20C0604EBD010401C40083E
:10022000802A02D003E0002010BD20F00100002948
:1002300000DA0020184310BD30B480EA010202F059
:10024000004530F0004221F0004013D090B1C30DC2
:10025000D40DC2F31601C0F31600E41A41F40001F4
:1002600040F400027D34914201D3641C00E0490057
:10027000002C02DA30BC002070474FF4000000234D
:10028000914201D3891A034340084FEA4101F7D153
:1002900051B1914202D14FF0004105E002D24FF03E
:1002A000010101E06FF0010103EBC450284430BCB0
:1002B00000F04ABA2DE9FE4F804681EA0300C00FE4
:1002C0000C46009021F0004123F00045B8EB0200FD
:1002D000A94105D24046214690461C460B4602469F
:1002E00023F00040104347D0270DC7F30A00C3F3A3
:1002F0000A510290401A019040286BDAC3F31300B0
:1003000040F4801B0098924620B10023D2EB030AF0
:1003100063EB0B0B01985946C0F14002504600F0C8
:10032000E2F906460D4650465946019A00F0FAF9A0
:1003300010EB08006141002487EA115284EAE77358
:100340001A4340D0009A62B3019A012A4FEA075239
:1003500015DC001B61EB02014FF0004202EA07527C
:10036000CDE90042001C41F5801132462B4600F0D9
:1003700031FA03B0BDE8F08F40462146F9E7001B93
:1003800061EB0201001C41F5801300185B4120184D
:10039000A2F5001747EB030140EAD570B6196D418D
:1003A00011E06D084FEA360645EAC0754FEA07527C
:1003B000001B61EB0201001C41F5801149084FEA66
:1003C00030000019514132462B4603B0BDE8F04FD2
:1003D00000F0F1B90098012240000023D0EB0202A6
:1003E00063EBE073009821464FEAE074B8EB00003D
:1003F00061EB0401E9E783F000435BE781F0004132
:1004000058E72DE9F04D81EA030404F0004B21F098
:10041000004514464FF0000A23F0004150EA05025F
:1004200020D054EA01021DD0C5F30A570246C5F395
:100430001303C1F31300C1F30A5640F4801543F4CB
:100440008013A7EB0608101BD64608F2FD3873EBA5
:10045000050002D308F1010801E092185B41B8F1F0
:10046000000F03DA00200146BDE8F08D00204FF4B4
:100470008011064684460EE0171B73EB050705D373
:10048000121B63EB050306434CEA010C49084FEAD3
:10049000300092185B4150EA0107EDD152EA0300A7
:1004A00012D082EA040083EA0501084305D0101B3C
:1004B000AB4106D20122002306E000224FF00043A8
:1004C00002E06FF0010253101AEB06004CEB0851EA
:1004D00010EB0A0041EB0B01BDE8F04D00F06BB9E9
:1004E000C10F80EAE0700844CA079623002100F09B
:1004F00034B996230022114600F02FB90EB540F210
:10050000334102910021CDE900110A460B4600F06B
:1005100061F903B000BD00F0004220F00040C10DC1
:10052000C0F3160040F400007F2901DA0020704774
:10053000962903DCC1F19601C84001E09639884054
:10054000002AF4D04042704720F00040C10DC0F3B3
:10055000160040F400007F2901DA00207047962938
:1005600003DCC1F19601C840704796398840704756
:10057000C1F30A5210B5C1F3130140F2FF3341F445
:1005800080119A4201DA002010BD40F233439A42B2
:10059000A2F2334203DC524200F0B4F810BD9040A6
:1005A00010BD00F0004230F000400AD0C10D01F54E
:1005B0006071C0F3160042EA0151C20840071143BE
:1005C000704700200146704730B5041E71F10004E9
:1005D00004DB4FF00044404264EB0101141E73F150
:1005E000000405DB1C464FF00043524263EB04035A
:1005F0008B4208BF824230BD01F0004330B421F08D
:10060000004150EA010206D00A0DA2F56072C1F362
:100610001301002A02DC30BC00207047440F44EA7A
:10062000C104C100E01830BC00EBC25000F08CB82F
:10063000002801DBC0F10040002901DBC1F10041CD
:1006400081427047002801DBC0F10040002901DB36
:10065000C1F100418842704730B50B460146002089
:100660002022012409E021FA02F59D4205D303FA74
:1006700002F5491B04FA02F52844151EA2F10102F5
:10068000F1DC30BD2DE9F05F0546002092469B4627
:1006900088460646814640241BE028464146474698
:1006A000224600F02FF853465A46C01A914110D303
:1006B00011461846224600F016F82D1A67EB01087D
:1006C0004F4622460120002100F00DF817EB0009EB
:1006D0004E41201EA4F10104DFDC484631462A4683
:1006E0004346BDE8F09F202A04DB203A00FA02F1DD
:1006F000002070479140C2F1200320FA03F3194310
:1007000090407047202A04DB203A21FA02F00021B1
:10071000704721FA02F3D040C2F120029140084311
:1007200019467047202A06DBCB17203A41FA02F01F
:1007300043EAE07306E041FA02F3D040C2F120023E
:1007400091400843194670470029A8BF7047401CD4
:10075000490008BF20F00100704710B4B0FA80FCD7
:1007600000FA0CF050EA010404BF10BC704749B114
:10077000CCF1200421FA04F411FA0CF118BF012184
:1007800021430843A3EB0C01CB1D4FEA00614FEA64
:10079000102042BF002010BC704700EBC350104433
:1007A0000029A4BF10BC7047401C490008BF20F0BE
:1007B000010010BC704710B5141E73F1000408DA74
:1007C000401C41F1000192185B411A4301D120F015
:1007D000010010BD2DE9F04D92469B4611B1B1FAD2
:1007E00081F202E0B0FA80F220329046FFF77BFF00
:1007F00004460F4640EA0A0041EA0B0153465A46B6
:10080000084313D0114653EA010019D0C8F1400241
:100810005046FFF777FF05460E465046594642467A
:10082000FFF761FF084305D0012004E02046394668
:10083000BDE8F08D0020054346EAE0762C433743BF
:100840000A986305E40AA0EB08000022FD0A44EAC6
:1008500047540A3002D500200146E9E70105101986
:100860006941DDE9084500196941BDE8F04DA2E79D
:100870002DE9FE4F81EA030404F0004421F0004119
:1008800000944FF0000B23F0004350EA01045ED0C7
:1008900052EA03045BD0C3F30A54C1F30A552C4453
:1008A000A4F2F3340194A0FB0254C1F3130141F408
:1008B0008011C3F3130343F4801301FB024400FBD4
:1008C000034E840A970A44EA815447EA8357A4FBFB
:1008D000076802958D0A05FB07854FEA932C04FBF8
:1008E0000C542705029D4FEA065847EA1637B5EB28
:1008F00008056EEB070C870E920E47EA811742EA55
:100900008312A7FB0201B6EB0B0164EB00042B0D75
:1009100043EA0C335E1844EB1C50DA465146E7FBC1
:100920000201C5F313044FEA0B3343EA14534FEAB1
:100930000432019C43EA0603A4F10C040294009CD7
:10094000CDE900B4FFF746FF03B0BDE8F08F00200B
:100950000146F9E7C1F30A52C1F3130140F2FF3334
:1009600041F480119A4202DA00200146704740F2B9
:1009700033439A42A2F2334202DC5242FFF7C2BE34
:10098000FFF7B1BE30B5041E71F1000404DB4FF077
:100990000044404264EB0101141E73F1000405DBC6
:1009A0001C464FF00043524263EB0403994208BFD8
:1009B000904230BD064C074D06E0E06840F0010370
:1009C00094E8070098471034AC42F6D3FFF792FB47
:1009D000B83D0008D83D000821B1826842F001020C
:1009E000826003E0826822F001028260704721B1D8
:1009F000826842F48072826003E0826822F480722E
:100A000082607047014600208A6802F004020AB141
:100A1000012000E000207047014600208A6802F0B3
:100A200008020AB1012000E00020704730B50246FC
:100A30000020002350680F4C20400D790C6844EAD8
:100A400005242043506090680B4C2040D1E90254AB
:100A50002C434D7944EA450420439060D06A20F449
:100A600070000C7C641EE4B2234340EA0350D06261
:100A700030BD0000FFFEF0FFFDF7F1FFF0B50446CA
:100A80000D4600200021092D11DDE068A5F10A06C0
:100A900006EB4607072606FA07F18843A5F10A0682
:100AA00006EB460603FA06F10843E0600CE0206915
:100AB00005EB4507072606FA07F1884305EB4506CF
:100AC00003FA06F108432061072A0FDA606B561E0D
:100AD00006EB86071F2606FA07F18843561E06EB2B
:100AE000860605FA06F10843606322E00D2A0FDA54
:100AF000206BD61F06EB86071F2606FA07F18843F0
:100B0000D61F06EB860605FA06F10843206310E0BF
:100B1000E06AA2F10D0606EB86071F2606FA07F12A
:100B20008843A2F10D0606EB860605FA06F1084396
:100B3000E062F0BD816841F008018160704721B139
:100B4000826842F4A002826003E0826822F4A0027C
:100B500082607047816841F0040181607047000045
:100B600000B591B002F022F80121480200F0FAFF2E
:100B70000121084600F0D6FF0320099000200890CC
:100B80001090354807904FF480600D9080200B90B6
:100B900020200E903148069080150C9000200A907D
:100BA0004FF440500F9006A92D4800F0A9F90121FB
:100BB0002B4800F099F9002001904FF46020039039
:100BC0000020049001208DF809008DF80800032012
:100BD0008DF8140001A921484C38FFF727FF07239F
:100BE00003220A211D484C38FFF748FF0723012242
:100BF0000B211A484C38FFF741FF072302220C2132
:100C000016484C38FFF73AFF012114484C38FFF7DB
:100C1000E3FE012111484C38FFF7E9FE0F484C383C
:100C2000FFF788FF00BF0D484C38FFF7F5FE01289D
:100C3000F9D00A484C38FFF78DFF00BF07484C3801
:100C4000FFF7E0FE0128F9D0012104484C38FFF7F6
:100C500076FF11B000BD00004E0000204C24014082
:100C60000800024000BFFEE770B50C4802F064F9CE
:100C7000C5B20B490988481CC11700EB5161C91165
:100C8000A0EBC1118CB207480088844205D0064809
:100C90000349098845540248048070BD004400405F
:100CA0006C0000206E0000205C02002010B50020C7
:100CB00005490880054908800549087005490880EC
:100CC00001F090F810BD00006E0000206C000020C4
:100CD000710000207200002010B50446604203B28B
:100CE000604202B2604201B2604200B201F0ECF92F
:100CF00010BD10B500231A461946184601F0E4F954
:100D000010BD10B504462346604202B2214660423F
:100D100000B201F0D9F910BD10B50446604203B22B
:100D20002246604201B2204601F0CEF910BD00001B
:100D300008B50820ADF8000004208DF8030003205A
:100D40008DF802006946024800F042FB08BD000031
:100D50000010014008B50820ADF8000010208DF803
:100D6000030003208DF802006946024800F030FBC2
:100D700008BD0000001001402DE9F04100260025CB
:100D80002EE0C82402E0012000F0E5F80821164812
:100D900000F0F2FB18B92000A4F10104F3D114B95A
:100DA000FF20BDE8F0810027C82403E0012000F007
:100DB000D2F87F1C08210C4800F0DEFB18B120009F
:100DC000A4F10104F2D10CB9FF20EAE71E2F05D3EC
:100DD000C5F10701012088403043C6B2681CC5B286
:100DE000082DCEDB3046DCE70010014010B5FFF7E0
:100DF000B1FF0821254800F0CAFB012000F09FF850
:100E00000821224800F0C1FB142000F098F80821C6
:100E10001E4800F0BCFB1E2000F09DF8FFF788FF85
:100E2000C82402E0012000F096F80821174800F0DD
:100E3000A3FB18B12000A4F10104F3D10CB90120E7
:100E400010BDC82402E0012000F085F808210F48F9
:100E500000F092FB18B92000A4F10104F3D10CB901
:100E60000120EDE7C82402E0012000F074F8082119
:100E7000064800F081FB18B12000A4F10104F3D171
:100E80000CB90120DCE70020DAE700000010014087
:100E90001CB5002000900190FFF7A8FF002405E09A
:100EA000FFF76AFF0DF80400601CC4B2052CF7DBE5
:100EB0009DF800009DF8011008449DF802100844B8
:100EC0009DF8031008449DF80410884207D19DF84E
:100ED0000200034908709DF80000024908701CBD1B
:100EE000680000206900002021B1026842F0010280
:100EF000026004E002684FF6FE731A400260704719
:100F000010B50022026847F6F0739A430C6A8B68AA
:100F100023430C6923434C6923438C692343CC69E5
:100F200023434C6A23438C6A23431A430260CB68F1
:100F300043600B6883604B68C36010BD704700B5A9
:100F4000034603E04FF47A7000F005F81800A3F1AF
:100F50000103F7D100BD00EBC001C9004FF0E02252
:100F60005161002191610521116100BF4FF0E02125
:100F7000096901F480310029F8D004214FF0E02202
:100F80001161704708B50121142000F0EBFD03202A
:100F9000ADF8000028208DF8030003208DF8020032
:100FA0006946024800F014FA08BD0000000801403C
:100FB0002DE9F04100242B48007830B101280AD0F7
:100FC00002281DD0032848D128E0274884882046DD
:100FD00001F0ECFB42E02548407800F001004FF4BE
:100FE0007A7148432149897801F0010101EBC1027E
:100FF00002EB011100EB8104204601F0D7FB2DE04C
:101000001B48007800EBC00101EB0010194909787A
:1010100001EB8004204601F0C9FB1FE002F03AFC1E
:10102000054600212846FFF703FB00D200251249A0
:101030002846FFF7CFF807464FF07C51FFF772F8CC
:101040000646FFF781FA84B242F20F70844200DD57
:101050000446204601F0AAFB00E000BF00BFBDE847
:10106000F0810000A20000204E0000209E00002021
:1010700068000020690000200000204108B501211F
:10108000042000F06FFDC020ADF8000014208DF8A2
:10109000030003208DF802006946024800F098F929
:1010A00008BD00000008014008B58020ADF8000030
:1010B00004208DF803006946014800F089F908BD55
:1010C0000008014008B58020ADF8000014208DF81C
:1010D000030003208DF802006946024800F078F909
:1010E00008BD00000008014070B54FF4006000F03A
:1010F000E1F868B34FF40061164800F03DFA054688
:101100004FF48051134800F037FA0446012D0DD1F9
:10111000012C05D110488068401C0F49886012E0FE
:101120000D488068401E0C4988600CE0012C05D1F8
:1011300009488068401E0849886004E006488068C5
:10114000401C054988604FF4006000F0ADF800BF16
:1011500070BD0000001001403002002070B5022078
:1011600000F0A8F858B34FF48051154800F004FA85
:1011700005460221124800F0FFF90446012D0DD169
:10118000012C05D10F484068401C0E49486012E010
:101190000C484068401E0B4948600CE0012C05D10A
:1011A00008484068401E0749486004E00548406818
:1011B000401C04494860022000F076F800BF70BD72
:1011C000000C01403002002070B5042000F072F8DD
:1011D00050B30421154800F0CFF9054640211448CA
:1011E00000F0CAF90446012D0DD1012C05D111489A
:1011F000C068401C0F49C86012E00E48C068401E1D
:101200000C49C8600CE0012C05D10A48C068401E9A
:101210000849C86004E00748C068401C0549C86028
:10122000042000F041F800BF70BD00000014014030
:10123000000C01403002002070B5202000F03AF888
:1012400050B30121154800F097F9054620211448B4
:1012500000F092F90446012D0DD1012C05D1114861
:101260000068401C0F49086012E00E480068401EEC
:101270000C4908600CE0012C05D10A480068401EAA
:101280000849086004E007480068401C05490860F8
:10129000202000F009F800BF70BD0000000C0140E4
:1012A0000010014030020020014908607047000032
:1012B00014040140014600200022074B1B6803EA8A
:1012C0000102054B14331B680B4013B10AB1012016
:1012D00000E00020704700000004014070B50546A2
:1012E000002408E04FF4FA70FFF70BFD0520FFF72C
:1012F00026FE601CC4B2154800881549098888423A
:10130000F0DB1E2CEEDB06E04FF4FA70FFF7F9FC81
:101310000520FFF714FE0D4840880E4909888842D1
:10132000F2DAFFF7E6FC3220FFF709FE4FF4FA701D
:10133000FFF7E7FC1420FFF702FEFFF7DAFC32208C
:10134000FFF7FDFD00200449087070BD4E0000202D
:1013500060000020620000203500002070B50546C6
:10136000002408E04FF4FA70FFF7D6FC0520FFF7E1
:10137000E6FD601C84B21248408812490988884200
:10138000F0DB322CEEDB06E04FF4FA70FFF7C4FC22
:101390000520FFF7D4FD0A4800880B4909888842D8
:1013A000F2DAFFF7A6FC3220FFF7C9FDFFF7A1FC38
:1013B0003220FFF7C4FD00200449087070BD000012
:1013C0004E00002066000020640000203500002050
:1013D0002DE9F041024600250026002000230024CC
:1013E000002791F803C00CF00F0591F803C00CF032
:1013F000100CBCF1000F03D091F802C04CEA0505B7
:1014000091F800C0BCF1000F31D0146800202BE02F
:101410004FF0010C0CFA00F3B1F800C00CEA03061F
:101420009E4220D183004FF00F0C0CFA03F7BC430F
:1014300005FA03FC4CEA040491F803C0BCF1280F40
:1014400006D14FF0010C0CFA00FCC2F814C00AE0FF
:1014500091F803C0BCF1480F05D14FF0010C0CFA14
:1014600000FCC2F810C0401C0828D1D31460B1F8A9
:1014700000C0BCF1FF0F34DD546800202EE000F105
:10148000080C4FF0010808FA0CF3B1F800C00CEAA0
:1014900003069E4221D183004FF00F0C0CFA03F794
:1014A000BC4305FA03FC4CEA040491F803C0BCF108
:1014B000280F05D100F1080C08FA0CF8C2F81480C6
:1014C00091F803C0BCF1480F07D100F1080C4FF0B0
:1014D000010808FA0CF8C2F81080401C0828CED386
:1014E0005460BDE8F0810000F0B50A4600230024F6
:1014F0000021002500F00046B6F1004F02D11D4E3C
:10150000F16901E01B4E7168C0F3034583B200F43A
:101510004016B6F5401F08D121F07061154E76686F
:1015200026F07066134F7E6012E000F48016B6F568
:10153000801F06D1032606FA05F4A14341F070612D
:1015400006E0460D360103FA06F6B14341F070613C
:1015500022B1460D360103FA06F6314300F000468B
:10156000B6F1004F02D1034EF16101E0014E71600E
:10157000F0BD0000000001400246002093680B40CF
:101580000BB1012000E0002070474161704701610C
:101590007047000010B54FF4FA60FFF7D0FC292027
:1015A0000E490870FFF76AFD02F05EFB02F044FB93
:1015B00002F037F9292002F077FBC22002F0C8FAC6
:1015C0000446214606A001F0C3FCC02002F0C0FA88
:1015D0000446214607A001F0BBFC10BD40020020DC
:1015E0000D0A5265766973696F6E2049443A202569
:1015F000580D0A004465766963652049443A202500
:10160000580D0A0D0A00000010B5044601200849D3
:10161000487024B902F0C0F90548847004E0002045
:1016200002F0BAF90248847002F04CFB10BD0000D1
:101630004002002000BFFEE770B504460D46164686
:101640001748007810B317480078012804D0022802
:1016500006D0032818D107E02046FFF73FFE14E02C
:101660002046FFF77BFE10E0FFF743FB6420FFF707
:1016700066FC4FF41670FFF72FFBBE20FFF75FFCF0
:101680002046FFF76BFE00E000BF08E033462A4625
:101690002146012001F0CAF90A20FFF750FC70BD75
:1016A000350000203400002000BFFEE700B589B0FF
:1016B0000121112000F056FA0121022000F042FA27
:1016C0004FF4C070ADF8200018208DF823000320DF
:1016D0008DF8220008A91F48FFF77AFE01211E4855
:1016E000FFF702FF40F2E730ADF818004720ADF8F1
:1016F00014000020ADF81A00ADF8160005A917482F
:1017000000F0E6FF6020ADF804000120ADF806000F
:101710000020ADF80C00ADF80A0001A90F4800F058
:10172000BFFE08210D4800F00DFF0020ADF80A00B3
:1017300001A90A4800F014FF0821084800F060FFE2
:101740000121064800F0F0FD0121044800F017FED9
:1017500009B000BD00100140000C1A000004004058
:1017600000B58DB0012142F61D0000F0FBF901210A
:10177000042000F0E7F94FF48440ADF83000182061
:101780008DF8330003208DF832000CA97C48FFF758
:101790001FFE4FF48070ADF830000CA97948FFF7B8
:1017A00017FE4FF40070ADF830000CA97648FFF733
:1017B0000FFE4020ADF830000CA97348FFF708FE7B
:1017C0004FF40040ADF830000CA96D48FFF700FE63
:1017D00040F2E730ADF828004720ADF824000020A3
:1017E000ADF82A00ADF826008DF82C0009A967484D
:1017F00000F06EFF05A800F058FF6020ADF814005F
:101800000020ADF816000420ADF818000020ADF857
:101810001C00ADF81E00ADF81A0005A95B4800F0E9
:101820003FFE0821594800F08DFE0120ADF816005A
:101830000020ADF81800ADF81C00ADF81A0005A99D
:10184000524800F0D7FD0821504800F01FFE00204C
:10185000ADF816000420ADF818000020ADF81E0009
:10186000ADF81A0005A9494800F07AFE082147485A
:1018700000F0C6FE09A9464800F02AFF0120ADF895
:1018800016000020ADF81800ADF81C00ADF81A00E5
:1018900005A93F4800F0AEFD08213D4800F0F6FDE7
:1018A0000020ADF81A0005A9394800F0B3FE082160
:1018B000374800F0EDFE40F2E730ADF82800472051
:1018C000ADF824000020ADF82A00ADF8260009A9E3
:1018D000304800F0FDFE6020ADF814000120ADF8A6
:1018E00016000020ADF81800ADF81C00ADF81A0085
:1018F00005A9284800F08EFE0821264800F0C8FE01
:1019000001A800F02DFD4FF40060ADF80400401078
:10191000ADF806000020ADF80A00ADF80800ADF8FB
:101920000C004FF48040ADF8100001A9174800F0FA
:1019300007FD01A9164800F003FD0121134800F03E
:101940002AFD0121124800F026FD01210F4800F078
:10195000EBFC01210D4800F012FD01210C4800F0C4
:10196000E3FC01210A4800F00AFD0121094800F0CA
:10197000DBFC0121074800F002FD0DB000BD0000B6
:10198000000C01400008014000100140002C014003
:10199000003401400008004070B505460C46B4F51F
:1019A0007A7F02DD4FF47A7005E014F57A7F01DA70
:1019B000314800E020460446012D06D0022D19D002
:1019C000032D2CD0042D54D13EE0002C08DB002147
:1019D0002A4800F078FEA1B2284800F072FE08E024
:1019E000604281B2254800F06EFE0021234800F0DD
:1019F00068FE3FE0002C08DB0021214800F061FE7A
:101A0000A1B2204800F061FE08E0604281B21C48AB
:101A100000F057FE00211B4800F057FE2AE0002C82
:101A200008DBA1B2164800F04AFE0021164800F07B
:101A30004CFE08E00021124800F041FE604281B2F5
:101A4000114800F042FE15E0002C08DBA1B20E4860
:101A500000F035FE00210A4800F035FE08E00021C4
:101A6000094800F02CFE604281B2054800F02BFED0
:101A700000E000BF00BF70BD18FCFFFF0004004085
:101A8000002C014000080040003401407047000075
:101A900070B5002100230F22C47804B3154C2468CC
:101AA00004F4E064C4F5E064210AC1F10403CA400F
:101AB000447804FA03F184781440214309010E4C60
:101AC0000678A155047804F01F050124AC40057880
:101AD0006D11AD0005F1E025C5F8004109E004787D
:101AE00004F01F050124AC40044D0678761145F83A
:101AF000264070BD0CED00E000E400E080E100E075
:101B000002490143024A1160704700000000FA05D3
:101B10000CED00E010B5FFF7C9FDFFF721FE10BD89
:101B20007047000029B1064A52690243044B5A61CA
:101B300004E0034A52698243014B5A617047000036
:101B40000010024029B1064AD2690243044BDA610F
:101B500004E0034AD2698243014BDA617047000016
:101B60000010024029B1064A92690243044B9A616F
:101B700004E0034A92698243014B9A617047000076
:101B8000001002400F48006840F001000D49086055
:101B9000084640680C4908400A4948600846006801
:101BA0000A490840074908600846006820F4802078
:101BB00008600846406820F4FE0048604FF41F00AB
:101BC00088607047001002400000FFF8FFFFF6FE3B
:101BD00030B500210022002400232D4D6D6805F052
:101BE0000C0121B1042905D0082923D105E0294D94
:101BF000056022E0274D05601FE0254D6D6805F466
:101C00007012234D6D6805F48034022505EB924275
:101C10001CB9214D554305600BE01D4D6D6805F461
:101C200000351DB11C4D5543056002E0194D55436B
:101C3000056002E0174D056000BF00BF144D6D68E0
:101C400005F0F0010909154D6B5C0568DD40456044
:101C50000F4D6D6805F4E061090A104D6B5C456835
:101C6000DD4085600A4D6D6805F46051C90A0B4D71
:101C70006B5C4568DD40C560054D6D6805F440410D
:101C8000890B074D6B5CC568B5FBF3F5056130BD8D
:101C90000010024000127A0000093D0014000020EC
:101CA0002400002010B501460022002300204A1124
:101CB000012A02D1094C236806E0022A02D1074C0E
:101CC000236A01E0054C636A01F01F02012494407D
:101CD0001C400CB1012000E0002010BD00100240AB
:101CE0000248406800F00C007047000000100240FD
:101CF00001460020034A506820F0F000084350607D
:101D000070470000001002401149096821F4803139
:101D10000F4A11601146096821F480211160B0F565
:101D2000803F03D0B0F5802F0ED106E00849096846
:101D300041F48031064A116007E00549096841F421
:101D4000A021034A116000E000BF00BF70470000FF
:101D50000010024001460020034A506820F4E06071
:101D60000843506070470000001002400146002008
:101D7000034A506820F4605040EAC1005060704748
:101D8000001002400149086670470000000042420E
:101D900002460020044B586820F47C1042EA0103FC
:101DA0001843014B58607047001002400146002064
:101DB000034A506820F00300084350607047000059
:101DC0000010024010B5044601210548FFF7D4FB7E
:101DD000607002210248FFF7CFFBA07010BD000029
:101DE00000080140002003490870034908700349B6
:101DF00008707047740000207000002075000020FB
:101E000008B501211020FFF7ADFE1020ADF800004D
:101E10008DF8030003208DF8020069460F48FFF794
:101E2000D7FA01210420FFF79DFE0420ADF8000041
:101E300018208DF8030003208DF802006946084839
:101E4000FFF7C6FA0820ADF8000004208DF8030063
:101E500069460348FFF7BCFA08BD000000100140C6
:101E60000008014010B586B00446FFF7C9FF012104
:101E70004804FFF767FE02940C20ADF81200002022
:101E8000ADF80C00ADF81000ADF80E00ADF8140080
:101E900002A9104800F0E4FF012240F225510D484C
:101EA00000F0B9FF4FF4A060FFF72AFE26208DF85E
:101EB000040001208DF807008DF805008DF806005C
:101EC00001A8FFF7E5FD0121024800F061FF06B01F
:101ED00010BD00000044004008B501210420FFF7B8
:101EE00041FE3020ADF8000010208DF803000320E3
:101EF0008DF8020069460248FFF76AFA08BD000043
:101F0000000801407047000000B587B00121880338
:101F1000FFF728FE01210420FFF724FE18208DF88A
:101F20001B004FF40070ADF8180003208DF81A0064
:101F300006A92148FFF74CFA48208DF81B004FF402
:101F40008060ADF8180003208DF81A0006A91A4821
:101F5000FFF73EFA4FF4E13002900020ADF8140094
:101F60000C20ADF812000020ADF81000ADF80E0006
:101F7000ADF80C0002A9114800F072FF012240F2F6
:101F800025510E4800F047FF4FF4A060FFF7B8FD61
:101F900025208DF8040001208DF807008DF805003C
:101FA0008DF8060001A8FFF773FD0121034800F03A
:101FB000EFFE07B000BD00000008014000380140FE
:101FC00010B504462146054800F0BBFF00BF802144
:101FD000024800F0E9FE0028F9D010BD00380140A9
:101FE00010B500F001F810BD0CB500200190009074
:101FF0003348006840F480303149086000BF304801
:10200000006800F4003000900198401C0190009896
:1020100018B90198B0F5A06FF1D12948006800F413
:10202000003010B10120009001E0002000900098E5
:10203000012843D12348006840F01000214908607E
:102040000846006820F0030008600846006840F079
:10205000020008601A48406819494860084640680C
:1020600048600846406840F4806048600846406820
:1020700020F47C1048600846406840F4E81048604E
:102080000846006840F08070086000BF0C48006897
:1020900000F000700028F9D00948406820F00300E3
:1020A000074948600846406840F00200486000BFA9
:1020B0000348406800F00C000828F9D10CBD00006E
:1020C00000100240002002402DE9F04104460F4676
:1020D00015461E462146002000F00EF83946012024
:1020E00000F00AF82946022000F006F831460320E5
:1020F00000F002F8BDE8F08170B505460C4635B138
:10210000012D0AD0022D0ED0032D18D111E060420E
:1021100001B20420FFF740FC12E0604201B201204E
:10212000FFF73AFC0CE0604201B20320FFF734FCF9
:1021300006E0604201B20220FFF72EFC00E000BF83
:1021400000BF70BD0448036840685A1C40F100009D
:1021500001490A60486070472800002010B5FFF769
:1021600011FD4FF48030FFF7CFFD00BF3120FFF7A6
:1021700099FD0028FAD04FF4E0114FF48030FFF7BA
:1021800007FE0120FFF7FEFD00BF3920FFF78AFDA3
:102190000028FAD00220FFF709FE00BFFFF7A0FDDC
:1021A0000828FBD10020FFF7A3FD4FF48060FFF764
:1021B000D1FD0020FFF7DAFD012146F63D00FFF7D3
:1021C000D1FC02480249086010BD000000A24A0488
:1021D0000000002010B51348006840F001001149CC
:1021E000086008464068104908400E4948600846A3
:1021F00000680E4908400B4908600846006820F452
:10220000802008600846406820F4FE0048604FF4D3
:102210001F008860FFF7E4FE4FF00060044908608B
:1022200010BD0000001002400000FFF8FFFFF6FEA6
:1022300008ED00E0084909684FF47A72B1FBF2F149
:10224000481E4FF0E021486100214FF0E0229161EB
:102250000721116170470000000000202DE9F041C6
:102260000121880700F0A6F801284AD126480088F5
:10227000401C2549088008460088B0F57A7F04DBB9
:10228000002008800120214908702148007800289A
:1022900033D140F6C11001461E4E75883288854202
:1022A00001DA012600E0002633468A4201DA0126DF
:1022B00000E000263446C3B1BCB1174E3668761C28
:1022C000154F3E600026154F3E60154F3E60124E82
:1022D00036680F2E10DB00260F4F3E6001260C4F94
:1022E0003E7003260F4F3E7006E000260A4F3E6008
:1022F0000A4F3E600A4F3E6000BF0121880700F090
:102300003BF8BDE8F08100003200002030000020E2
:10231000350000204E000020380000203C00002046
:10232000400000203400002021B1028842F08002E9
:10233000028004E002884FF67F731A4002807047E3
:102340000A884B881A438B881A43CB881A430B8917
:102350001A434B891A438B891A43A0F844207047CB
:102360000021018041808180C18001814181818182
:102370007047CA4302827047CA430282704721B144
:10238000028842F00102028004E002884FF6FE73E8
:102390001A400280704731B1B0F8442042F4004244
:1023A000A0F8442005E0B0F84420C2F30E02A0F8E3
:1023B0004420704730B50246002000230024158ACF
:1023C00005EA0103958905EA010413B10CB1012066
:1023D00000E0002030BD1AB183890B43838102E005
:1023E00083898B438381704701894FF6F8721140CE
:1023F0000181704770B5002400220023058C4FF640
:10240000FE7635400584028C8388048B4FF68F75E9
:102410002C40B51E2C400D882C43751E2A400D897A
:102420002A434D882A43144DA8420BD0134DA8428D
:1024300008D0134DA84205D0124DA84202D0124D2B
:10244000A84213D14FF6F7752A404D892A434FF61B
:10245000FB752A408D882A434FF6FF652B404FF6C7
:10246000FF552B408D892B43CD892B4383800483DB
:10247000CD888586028470BD002C01400034014067
:102480000040014000440140004801400A4600214C
:10249000018B4FF6F7731940114301837047000019
:1024A00070B5002400220023058C4FF6EF763540EE
:1024B0000584028C8388048B48F6FF752C404FF608
:1024C000FF452C400D884FF6FF7606EA05252C4384
:1024D0004FF6DF752A400D8906EA05152A434D8817
:1024E00006EA05152A43154DA84202D0144DA8420C
:1024F0001DD14FF67F752A404D894FF6FF7606EACB
:1025000005152A434FF6BF752A408D8806EA051542
:102510002A434FF6FF352B404FF2FF752B408D8934
:1025200006EA85052B43CD8906EA85052B43838082
:102530000483CD880587028470BD0000002C014013
:10254000003401400A460021018B4FF2FF7319400D
:102550004FF6FF7303EA022319430183704700001B
:1025600070B5002400220023058C4FF6FF6635402D
:102570000584028C8388848B4FF68F752C404FF630
:10258000FC752C400D882C434FF6FF552A400D89D1
:102590004FF6FF7606EA05252A434D8806EA05250B
:1025A0002A43154DA84202D0144DA8421DD14FF226
:1025B000FF752A404D894FF6FF7606EA05252A4326
:1025C0004FF6FF352A408D8806EA05252A434EF648
:1025D000FF752B404DF6FF752B408D8906EA0515DA
:1025E0002B43CD8906EA05152B4383808483CD8850
:1025F0008587028470BD0000002C0140003401403A
:102600000A460021818B4FF6F773194011438183ED
:102610007047000070B5002200230024058C4EF6A0
:10262000FF7635400584038C8488828B48F6FF75DD
:102630002A404FF6FF452A400D884FF6FF7606EAFE
:1026400005252A434DF6FF752B400D8906EA053511
:102650002B434D8806EA05352B430B4DA84202D08B
:102660000A4DA84208D14BF6FF752C408D894FF6D4
:10267000FF7606EA85152C4384808283CD88A0F8F6
:102680004050038470BD0000002C01400034014024
:102690000A460021818B4FF2FF7319404FF6FF73FA
:1026A00003EA02231943818370470021018041809E
:1026B0008180C180018141818181C1817047818692
:1026C00070470187704781877047A0F840107047B6
:1026D000002202881D4B98420ED01D4B98420BD011
:1026E000B0F1804F08D01B4B984205D01A4B98424E
:1026F00002D01A4B984204D14FF68F731A404B8880
:102700001A43174B984207D0164B984204D04FF605
:10271000FF431A40CB881A4302808B8883850B883D
:1027200003850A4B98420BD0094B984208D00E4BB8
:10273000984205D00D4B984202D00D4B984201D1E2
:102740000B7A03860123838270470000002C01402E
:10275000003401400004004000080040000C00402C
:1027600000100040001400400040014000440140BF
:102770000048014010B500F095F8402000F0CEF878
:1027800000F0AEF800F08EF8C02000F0C7F800248A
:1027900004E0002000F0C2F8601CC4B2042CF8DB96
:1027A00000F09EF8032000F06FF810BD38B5044625
:1027B00042F20F70844209DD40208DF800008DF850
:1027C00001008DF802008DF8030028E04FF47A70C4
:1027D00094FBF0F02349085C8DF80000642094FB22
:1027E000F0F00A2190FBF1F201FB12001D49085C98
:1027F0008DF801000A2094FBF0F00A2190FBF1F221
:1028000001FB12001749085C8DF802000A2094FBB6
:10281000F0F100FB11401349085C8DF8030000F053
:1028200041F8402000F07AF800F05AF800F03AF849
:10283000C02000F073F89DF8000000F06FF89DF8DC
:10284000010000F06BF89DF8020000F067F89DF8B9
:10285000030000F063F800F043F8032000F014F8E0
:1028600038BD0000A43D000810B5FFF735FB10216E
:102870000448FEF78CFE20210248FEF788FEFFF791
:1028800079FF10BD0008014010B50446072C00DD9B
:10289000072400F007F844F0880000F03FF800F04B
:1028A0001FF810BD10B510210C48FEF770FE202156
:1028B0000A48FEF76CFE0120FEF74DFB2021074879
:1028C000FEF763FE0120FEF746FB10210348FEF7EA
:1028D0005CFE0120FEF73FFB10BD00000008014038
:1028E00010B510210C48FEF750FE20210A48FEF7D3
:1028F0004CFE0120FEF72FFB10210748FEF747FE94
:102900000120FEF728FB20210348FEF740FE0120AE
:10291000FEF721FB10BD00000008014070B5044621
:10292000002600251FE010212048FEF72EFE012082
:10293000FEF711FB04F0010020B120211B48FEF737
:1029400026FE03E020211948FEF71FFE6410012037
:10295000FEF701FB10211548FEF719FE0120FEF7D6
:10296000FAFA681CC5B2082DDDDB10210F48FEF70E
:102970000CFE20210D48FEF70AFE0120FEF7EBFABF
:1029800010210A48FEF703FE0120FEF7E4FA202199
:102990000648FEF7F1FD00B9012610210348FEF7B5
:1029A000F4FD0120FEF7D7FA304670BD0008014063
:1029B0001FB501210846FFF7C5F84FF08040FFF72B
:1029C00013FD0020ADF80A00ADF8060040F2E73034
:1029D000ADF808004720ADF8040000208DF80C0089
:1029E00001A94FF08040FFF773FE01218807FFF730
:1029F000C0FC012211469007FFF7EDFC4FF4A060E8
:102A0000FFF77EF81C208DF8000001208DF80300F0
:102A10008DF8010000208DF802006846FFF738F8B5
:102A200001218807FFF7ABFC1FBD00002DE9FF5F08
:102A300005460C469046994655494988A1F24C40B6
:102A4000FDF74EFD53490290FDF7F6FB82465049D3
:102A50000988A1F24C40FDF743FD4E490290FDF775
:102A6000EBFB834600215046FDF7E2FD01D24FF01B
:102A7000000A4FF07E515046FDF7E4FD01D24FF0C1
:102A80007E5A00215846FDF7D3FD01D24FF0000BCE
:102A90004FF07E515846FDF7D5FD01D24FF07E5BD9
:102AA000012D0AD151465846FDF78EFB3A49029056
:102AB000FDF790FB394908600BE0022D09D159461A
:102AC0005046FDF781FB34490290FDF783FB334903
:102AD00008606420039031480068FDF762FD21F032
:102AE000004100222E4BCDE90001FDF76DFD02D221
:102AF00000202A4908602B48016828480068FDF733
:102B000063FB49460090FDF765FB0290234801688E
:102B10004046FDF75FFB01900299FDF703FB224958
:102B200008602046FDF7E5FC02901F480168029806
:102B3000FDF77EFD04D22046FDF7DBFC1A49086054
:102B40006042FDF7CDFC0290174801680298FDF73E
:102B500079FD04D26042FDF7C3FC134908601248B6
:102B60000068FDF7D8FC201A06B20F480068FDF790
:102B7000D2FC204407B23B46324639463046FFF786
:102B8000A3FA0648006807490860BDE8FF9F0000F7
:102B90004E00002000303B450000FF43580000205D
:102BA00000005940540000205C00002008B50720B8
:102BB000ADF8000000208DF8030003208DF802001E
:102BC00069460248FEF704FC08BD00000010014001
:102BD00010B5FDF7C5FF10BD4849097805297DD21C
:102BE000DFE801F0030E18355000AA2807D10121B3
:102BF000424A11700021424A1180424A11707BE022
:102C0000552803D102213D4A117002E000213B4AC0
:102C1000117071E0042801D0072810D10321374A30
:102C2000117037490A880988491C354B1980364983
:102C30008854344909780144324A117006E0002171
:102C40002E4A11702E4A11802E4A117054E0052828
:102C500010DB0421294A117029490A880988491C76
:102C6000274B198028498854264909780144254A68
:102C7000117006E00021214A1170214A1180214A79
:102C8000117039E020494978491C1D4A1288914247
:102C90000DDD1B490A880988491C194B19801A49FE
:102CA0008854184909780144164A11701BE01649E6
:102CB0004978491C124A1288914214D11149097865
:102CC000C943104A117011460978884202D1012186
:102CD0000E4A11700021094A117000E004E0084A10
:102CE0001180084A117007E00021044A1170044A5B
:102CF0001180044A117000BF00BF70474C000020D3
:102D00004A0000204D000020A800002044000020C0
:102D100010B540F22551084800F053F858B1064864
:102D200000F00AF9C4B22046FFF756FF40F22551E1
:102D3000014800F015F810BD0038014010B540F210
:102D40002551064800F03DF8012806D1FDF78CFF1B
:102D500040F22551014800F00CF810BD004400403D
:102D600001F40072B2F5007F00D100BFCA430280B7
:102D7000704710B50022002340F66A14A14200D12A
:102D800000BF0A1201249440A3B2DC43048010BDAA
:102D900021B1828942F40052828104E082894DF699
:102DA000FF731A408281704702460020B1F5007F10
:102DB00000D100BF13880B400BB1012000E00020C0
:102DC000704770B50246002400230025002040F61D
:102DD0006A16B14200D100BFC1F3421501F01F03D2
:102DE000012606FA03F3012D02D19689334006E04D
:102DF000022D02D1168A334001E0968A33400C122C
:102E0000012606FA04F41688344013B10CB10120EF
:102E100000E0002070BDF0B5034600240026002528
:102E2000002040F66A17B94200D100BF1846C1F32E
:102E3000421401F01F06012707FA06F5012C01D103
:102E40000C3004E0022C01D1103000E014301AB133
:102E500007682F43076002E00768AF430760F0BDD3
:102E60002DE9F04786B005460E460024A24600BF75
:102E7000A1460027B08900B100BF2F462C8A4CF62E
:102E8000FF700440F08804432C82AC894EF6F310A6
:102E90000440B08831890843718908430443AC81F8
:102EA000AC8A4FF6FF400440B0890443AC8201A8CD
:102EB000FEF78EFE1F48874202D1DDF810A001E028
:102EC000DDF80CA0A88900F4004040B10AEBCA006C
:102ED00000EB0A1031684900B0FBF1F807E00AEB9B
:102EE000CA0000EB0A1031688900B0FBF1F86420D9
:102EF000B8FBF0F004012009642101FB1089A889C6
:102F000000F4004040B1322000EBC900B0FBF1F00A
:102F100000F00700044308E0322000EB09106421B0
:102F2000B0FBF1F000F00F0004432C8106B0BDE8C7
:102F3000F08700000038014001468888C0F308008F
:102F40007047C1F308028280704700BFFEE70000AF
:102F50000FB4054B10B503A9044A029800F0CAF853
:102F600010BC5DF814FB000083380008A4000020AA
:102F700002E008C8121F08C1002AFAD17047704742
:102F8000002001E001C1121F002AFBD170470000A0
:102F90002DE9FF5FDDE90220010DDDF838B00243C5
:102FA00018D044F61050A1F2FF3141430D140F9890
:102FB000012820D0A5EB0B00401C5FEA000A4FF06F
:102FC0000004474EDFF81C91A046504616D5CAF1C2
:102FD000000728E00F98012443A2012808D000210F
:102FE00000980F9BC0E90021C0E90243BDE8FF9FA4
:102FF0006FEA0B01F4E7CBF10000DEE7074612E0D1
:10300000F80707D02246334640464946FDF730FCD4
:10301000804689462246334610461946FDF728FC6D
:1030200004460E467F10002FEAD1DDE90201BAF115
:10303000000F42464B4602DAFDF71AFC01E0FDF7AD
:10304000E0F904460E460022284BFDF79BFC03D80E
:103050004FF0FF30014607E00022254B2046314665
:10306000FDF728F9FDF776FC102409E0002C0ADBB7
:103070000A220023FDF706FB019B30321A55641E1D
:1030800050EA0102F2D1641C019AC4F11103144404
:103090000F9A012A03D0012208430DD10AE0084308
:1030A00004D000204FF0110B0F9080E7A3EB0B052D
:1030B0006D1E0DE05B4504DD4FF0000205F10105DA
:1030C00004E003DA4FF00002A5F10105002AECD07C
:1030D00000980F99C0E90231C0E9004586E7000079
:1030E000000024400000F03F300000000000F043EA
:1030F0000000E03F2DE9FF4F95B09B46894606460C
:1031000000250FE2252877D100242746F84A01211F
:10311000059400E0044316F8013F203B01FA03F058
:103120001042F7D130782A2811D06FF02F03307871
:10313000A0F13002092A16D8059A44F0020402EBE5
:10314000820203EB42021044761C0590EFE759F827
:10315000042B0592002A03DA504244F400540590EF
:1031600044F00204761C30782E2816D116F8010F90
:1031700044F004042A280DD06FF02F023078A0F11B
:103180003003092B09D807EB870302EB4303C71869
:10319000761CF3E759F8047B761C30786C280FD046
:1031A00006DC4C2817D068280DD06A2814D104E01A
:1031B000742810D07A280FD10DE044F400140AE0EE
:1031C00044F4801401E044F440147278824202D145
:1031D00004F58014761C761C307866280BD013DC3E
:1031E000582877D009DC002875D04528F6D0462825
:1031F000F4D047281AD19DE118E0632835D064281F
:1032000079D0652812D195E1702873D008DC672841
:10321000F1D069286FD06E280DD06F2806D1B5E0A7
:1032200073282CD0752875D0782874D05A461799F1
:1032300090476D1C75E1C4F30250022809D00328A1
:103240000DD0D9F8001004280DD00D6009F1040943
:1032500067E1D9F80010EA17C1E90052F6E7D9F89A
:1032600000100D80F2E70D70F0E719F8041B8DF8DF
:10327000001000208DF80100EA46012003E059F813
:1032800004AB4FF0FF3061074FF0000102D40DE0B6
:1032900008F101018846B9420FDA8045F8DB1AF8D7
:1032A00008100029F4D108E008F1010188468142A4
:1032B000FADB1AF808100029F6D105985B46A0EB56
:1032C000080721463846179A00F094FA284400EB84
:1032D000080507E04DE029E10DE01AF8010B5A4618
:1032E00017999047B8F10108F7D25B462146384656
:1032F000179A13E142E00A220092C4F302524FF0FF
:10330000000A022A08D059F804CB032A4FEAEC71CC
:103310000AD00DE029E02AE009F1070121F00702B7
:10332000F2E802C1914609E00FFA8CFC4FEAEC7119
:10333000042A03D14FFA8CFC4FEAEC71002907DA1A
:103340000A460021DCF1000C61EB02012D2202E0B3
:10335000220504D52B228DF80420012203E0E20788
:1033600001D02022F7E7904659E00A2102E010221E
:103370000DE010214FF0000A00910BE010224FF0F9
:10338000000A44F004040827009203E008224FF0EA
:10339000000A0092C4F30252022A05D059F804CB65
:1033A0000021032A08D009E009F1070121F00702F2
:1033B000F2E802C1914605E01FFA8CFC042A01D113
:1033C0000CF0FF0C4FF00008220728D5702806D01B
:1033D000009B83F0100353EA0A0305D00EE040225D
:1033E0008DF80420012208E05CEA010206D03022B8
:1033F0008DF804208DF8050002229046009B83F092
:10340000080353EA0A030AD15CEA010201D1620708
:1034100005D530228DF804204FF001087F1E582872
:1034200004D034A003900EA802900DE036A0F9E776
:1034300053466046009AFDF725F984460398825C5E
:103440000298401E029002705CEA0100F0D10298DE
:1034500006A9081A00F1200A600702D524F4803476
:1034600000E00127574502DDA7EB0A0000E000203D
:1034700000EB0A01009005984144401A0590E003D2
:1034800006D45B462146179A059800F0B3F9054427
:10349000002706E001A85A46C05D179990476D1CA9
:1034A0007F1C4745F6DBE0030CD55B462146179AA7
:1034B000059800F09FF9054404E030205A4617991A
:1034C00090476D1C0099481E00900029F5DC08E02B
:1034D000029802995A460078491C02911799904720
:1034E0006D1CBAF10001AAF1010AF1DC65E10000EE
:1034F00009280100303132333435363738396162CA
:10350000636465660000000030313233343536378D
:1035100038394142434445460000000000F058F964
:103520000544761C307800287FF4ECAD19B02846AD
:10353000BDE8F08F620700D4062709F1070222F0E8
:10354000070CFCE80223E14603F000485FEA080CA0
:1035500002D00FF2702C0DE05FEA045C02D50FF28E
:10356000682C07E05FEAC47C02D00FF2602C01E017
:10357000AFF2700C4FF0FF3823F00043CDF850C08D
:1035800065280CD006DC452809D046281DD04728E0
:103590003DD13DE0662818D067287ED138E0002173
:1035A000112F01DB112000E0781CCDE9000106A9F4
:1035B0000EA8FFF7EDFCDDE90F010E9A0391002143
:1035C000009207F1010A04914DE04FF0004000978E
:1035D000CDE9011006A90EA8FFF7DAFCDDE90F021C
:1035E00003920E9B11990022DDF80CA00093049227
:1035F00011B9791C00EB010AB7EB0A0004D4C0F141
:10360000FF3007F1010A0490AAEB0700019044E0A3
:10361000012F00DA01270021112F01DD112000E028
:103620003846CDE9000106A90EA8FFF7B1FCDDE997
:103630000F010E9A0391002104910092BA462107CE
:103640000CD40399514500DA8A46BAF1010F05DD21
:10365000009AAAF10101515C302908D0B84202DA7F
:1036600010F1040F06DA0121CDE9011015E0AAF1ED
:103670000101E9E7002805DC049901440491AAEB63
:10368000000102E0411C514500DD8A460499401AC0
:10369000401C01904FF000400290200704D4019894
:1036A000504501DBCDF8048000208DF84F000298D2
:1036B0000DF14F07B0F1004F25D02B200E9002984E
:1036C0004FF0020800280CDA404202902D200E90A4
:1036D00007E00A210298FCF7BFFF3031029007F89B
:1036E000011DB8F10001A8F10108F2DC02980028E0
:1036F000EFD1791E0E980870307800F0200040F06D
:10370000450007F8020D12A8C01B00F10708149825
:10371000007800B1012000EB0A01019801EBE07193
:1037200005984144401A401E0590E00306D45B46CC
:103730002146179A059800F05DF805441498007822
:1037400018B15A46179990476D1CE00324D55B4683
:103750002146179A059800F04DF805441CE004989E
:10376000002807DBDDE90301884203DD0098405CA7
:10377000179901E0179930205A469047049805F1AF
:103780000105401C04900198401E019004D12E2098
:103790005A46179990476D1CBAF10001AAF1010A27
:1037A000DDDC05E017F8010B5A46179990476D1CB0
:1037B000B8F10001A8F10108F4DC5B462146179A34
:1037C0000598ABE62D0000002B0000002000000053
:1037D0002DE9F041044600251E461746880404D40E
:1037E00005E039462020B0476D1C641EF9D52846F7
:1037F000BDE8F0812DE9F041044600251E469046C3
:10380000C80301D5302700E02027880404D505E04F
:1038100041463846B0476D1C641EF9D52846BDE8C0
:10382000F08110B5892000F093F9044604F0FE0001
:10383000441C2146892000F09FFA0021882000F0D6
:103840009BFA0121802000F097FA0121FF2000F06F
:1038500093FA0021084600F08FFA912000F078F9E1
:103860003C21912000F088FA0121002000F084FA28
:103870000021FF2000F080FA0021802000F07CFA77
:1038800010BD70B504460D46E0B2FEF799FB204628
:1038900070BD00002DE9F04F89B03348407808B979
:1038A00000F010FA00F0A4F92F48008B142804D17E
:1038B0002E4800882C49088303E02B48008B2B49B5
:1038C00008802948807868B92749088BFCF716FEDC
:1038D00007460022264BFCF794FD0546FCF78CFEBC
:1038E000044604E02049088BFCF703FE044620460A
:1038F000FCF757FE074600221E4BFCF782FD0546EB
:10390000FCF77AFE81464846FCF74BFE05462A4600
:103910000B4619A0FFF71CFB1C494846FCF75AFC54
:103920000190FCF73EFE0022194BCDE90201FCF7A5
:10393000C1FC0546FCF71CFE8346FCF7DAFD824617
:10394000FCF72FFE00220B4BCDE90401FCF759FDDB
:103950000022104BCDE90601FCF74DFD0746FCF7B0
:103960004BFE09B0BDE8F08F400200206A00002045
:10397000000010400000244064697374616E636548
:103980003A252E3266636D0A0000000000002041D7
:103990000000E03F0000084010B504462146092021
:1039A00000F0EAF910BD70B50546FDF77DFB002477
:1039B00000260CE06006040E00F03EF900F06CF901
:1039C00008B144F0010400F043F9701CC6B2082E9F
:1039D000F0DBFDF777FB15B100F052F901E000F0E4
:1039E00043F900F029F900F033F9204670BD10B515
:1039F000FDF768FB00F038F900F01EF900F040F91F
:103A000000F026F910BD10B5FDF75CFB00F020F9C1
:103A100000F036F900F010F900F026F90F20FDF75C
:103A20009AFA10BD70B50446FDF74CFB00250FE077
:103A300004F0800010B100F017F901E000F020F967
:103A40006006040E00F0F8F800F002F9681CC5B238
:103A5000082DEDDBFDF728FB00F0EEF800F01CF977
:103A6000064600F0F5F8304670BD0000FEF7B2FBE8
:103A7000FEF774FBFEF7DEFB4FF4A060FEF740F8A4
:103A8000FEF742FA2C48FEF7EDF9FDF70FF9FEF7C5
:103A900041F8FFF79DF8FEF7E7FEFDF773FA4FF4E4
:103AA000FA70FDF74CFAFDF775FD4FF4FA70FDF76B
:103AB00046FA0020FDF7A8FD4FF4FA70FDF73FFA33
:103AC000FEF776FF40F24B442046FEF76FFE32E0F1
:103AD0001A480078012827D1002018490870FFF7FC
:103AE000D9FE1748FEF76EF916480078401C1549B4
:103AF00008700846007805280CDB00200870124981
:103B00000978481CC11700EB91718910A0EB810165
:103B10000D4A11700C480078022803D1FDF7E9F82E
:103B2000FDF7B6F9FDF744FA084A4FF0824140F23A
:103B3000E730FDF781FDCBE740420F003000002069
:103B40009E000020A3000020A200002000004041B1
:103B500070B50446FFF74BFF0D4909784906080E7A
:103B6000FFF760FF2046FFF75DFFFFF740FF0849C2
:103B70000978012202EB4101C8B2FFF753FF002090
:103B8000FFF711FF0546FFF73EFF284670BD000016
:103B90004002002070B506460D46FFF728FF134986
:103BA00009784906080EFFF73DFF3046FFF73AFF58
:103BB000FFF71DFF0D490978012202EB4101C8B250
:103BC000FFF730FF00240CE0691EA14201DD012156
:103BD00000E000210846FFF7E6FE0449C91C08552D
:103BE000641CAC42F0DBFFF70EFF70BD400200200A
:103BF00010B50C211420FFF7CDFF0E48407A0D4977
:103C0000897A60F31F210B488182C07A0949097BB8
:103C100060F31F210748C182407B0649897B60F31E
:103C20001F2104480183C078C0F3C300014988768E
:103C300010BD00004002002010B540210348FDF7F0
:103C4000A6FC0F20FDF787F910BD00000008014019
:103C500010B540210348FDF798FC0F20FDF77BF9D4
:103C600010BD00000008014010B580210348FDF799
:103C70008EFC0F20FDF76FF910BD00000008014019
:103C800010B580210348FDF780FC0F20FDF763F994
:103C900010BD00000008014010B580210148FDF76B
:103CA0006BFC10BD0008014010B5044604F07F0411
:103CB00021468A2000F060F80148047010BD000021
:103CC000400200202DE9F0410125214847780121DB
:103CD000802000F051F80121FF2000F04DF8002174
:103CE000084600F049F83C21912000F045F80121F8
:103CF000002000F041F80021FF2000F03DF80021F5
:103D0000802000F039F817B1012F19D113E00121FB
:103D1000002000F031F82E46002400BF1CB1002026
:103D2000FFF716FF0646641C06EA0500A84201D10B
:103D3000C82CF3D308E00221002000F01DF803E0B6
:103D400004A0FFF705F900BF00BFBDE8F081000047
:103D5000400200202D2D2D53656C65637465642031
:103D60006D6F6465206E6F7420737570706F727400
:103D700065642D2D2D0D0A0070B505460C46FFF724
:103D800036FE074909784906080EFFF74BFE28461C
:103D9000FFF748FE2046FFF745FEFFF734FE70BDF3
:103DA000400200203F065B4F666D7D077F6F777C8A
:103DB000395E797100800000D83D000800000020C5
:103DC000A8000000702F0008803E0008A800002016
:103DD00058060000802F000800A24A0400000000DE
:103DE00000000000010203040607080900000000AB
:103DF000010203040102030406070809020406087D
:103E000000000000000000000000000000000000B2
:103E100000000000000000000000000000000000A2
:103E20000000000000000000000000000000000092
:103E30000000000000000000250A250A250A250AC6
:103E40000000000000000000000000000000AA5573
:103E50000417040401000000000200000000030039
:103E6000000000040000000000000000000000004E
:103E70000000000000000000000000000000000042
:04000005080000ED02
:00000001FF
